:10000000022B07008F828E83E0540100000070F8FD
:100010002278FFE4F6D8FD022B6590008BEFF0907C
:100020000093E4F0A3E4F090008CE4F090008CE006
:10003000FFEFC3940940030200D990008CE0FFEF6A
:1000400075F00BA424A9F582E43400F583E4F09064
:10005000008CE0FFEF75F00BA424ABF582E43400D4
:10006000F583E4F090008CE0FFEF75F00BA424AA78
:10007000F582E43400F583E4F090008CE0FFEF7546
:10008000F00BA424ACF582E43400F583E4F0900096
:100090008CE0FFEF75F00BA424AEF582E43400F59C
:1000A00083E4F090008CE0FFEF75F00BA424B1F531
:1000B00082E43400F583E4F0A3E4F090008CE0FFE8
:1000C000EF75F00BA424B3F582E43400F583E4F07B
:1000D00090008CE004F002002C90008BE0FFEF60B9
:1000E0003A90008EE4F090008EE0FFEFC39402504F
:1000F0002A90008EE0FF740C2FF582E43401F58322
:10010000E4F090008EE0FF741B2FF582E43401F5DB
:1001100083E4F090008EE004F080CB9000A4E0FF38
:10012000EFD3940050030205439000A4E0FFEF14C6
:10013000FF1238D9900095EEF0A3EFF0900095E013
:10014000FEA3E0FF8F828E83A3120C5A90009012C0
:100150000C51900090120C48E92407F9EA3400FA97
:100160001209DBFFEF5440FF7E00EF4E601090005D
:10017000A3E0FFEF4401FF9000A3EFF0800E90009A
:10018000A3E0FFEF54FEFF9000A3EFF0900095E096
:10019000FEA3E0FFEF2404FFEE3400FE900095EE96
:1001A000F0A3EFF0900095E0FEA3E0FF8F828E8336
:1001B000E493FF90008CEFF090008E7401F09000BB
:1001C0008EE0FFEFC394094003020458900095E0CD
:1001D000FEA3E0FF8F828E83A3120C5AAE02AF0102
:1001E000900097EEF0A3EFF090008DE4F090008C7B
:1001F000E0FF90008DE0FEEEC39F400302044F90AD
:100200000097E0FEA3E0FF8F828E83740293FFEFDE
:10021000547FFF7E0090008EE0FD7C00ED6F700249
:10022000EC6E600302042E900097E0FEA3E0FF8FC7
:10023000828E83740493FE740593FF90008EE0FD1C
:10024000ED75F00BA424B1F582E43400F583E0FCF5
:10025000A3E0FDC3ED9FEC9E502C900097E0FEA321
:10026000E0FF8F828E83740493FE740593FF9000E9
:100270008EE0FDED75F00BA424B1F582E43400F5B9
:1002800083EEF0A3EFF0900097E0FEA3E0FF8F82F3
:100290008E83E493FF740C2FF582E43401F583E040
:1002A000FF900097E0FCA3E0FD8D828C83740193A6
:1002B000FEEF6E600302042E900097E0FEA3E0FFC5
:1002C0008F828E83740393FFEF5403FF90008FEFB0
:1002D000F0900097E0FEA3E0FF8F828E837402937C
:1002E000FFEF5480FF7E00EF4E700302036E90001C
:1002F0008EE0FFEF75F00BA424AAF582E43400F53C
:10030000837401F090008FE0FFEFB401047F078059
:10031000027F0D90008EE0FEEE75F00BA424AEF58A
:1003200082E43400F583EFF0900097E0FEA3E0FF55
:100330008F828E83740693FFEF640A601890009793
:10034000E0FEA3E0FF8F828E83740693FFEF6402CA
:1003500060030203E490008FE0FFEF640370030288
:1003600003E490008EE0FF9001B4EFF080769000FF
:100370008EE0FFEF75F00BA424AAF582E43400F5BB
:1003800083E4F090008FE0FFEFB401047F0580026A
:100390007F0990008EE0FEEE75F00BA424AEF5828E
:1003A000E43400F583EFF0900097E0FEA3E0FF8FC8
:1003B000828E83740693FFEF640A6014900097E0C6
:1003C000FEA3E0FF8F828E83740693FFEFB40214C6
:1003D00090008FE0FFEF6403600A90008EE0FF90D2
:1003E00001B5EFF0900097E0FEA3E0FF8F828E83CF
:1003F000740293FF90008EE0FEEE75F00BA424AD26
:10040000F582E43400F583EFF0900097E0FEA3E07E
:10041000FF8F828E83740393FF90008EE0FEEE7553
:10042000F00BA424A9F582E43400F583EFF09000EA
:1004300097E0FEA3E0FFEF2407FFEE3400FE9000FC
:1004400097EEF0A3EFF090008DE004F00201ED9044
:10045000008EE004F00201BE900095E0FEA3E0FFF4
:100460008F828E83A3120C5AAE02AF01900097EEDA
:10047000F0A3EFF090008EE4F090008CE0FF90008D
:100480008EE0FEEEC39F5053900097E0FEA3E0FF86
:100490008F828E83E493FF900097E0FCA3E0FD8DB4
:1004A000828C83740293FEEE547FFEEE75F00BA4F3
:1004B00024B3F582E43400F583EFF0900097E0FE7A
:1004C000A3E0FFEF2407FFEE3400FE900097EEF06C
:1004D000A3EFF090008EE004F0809E123539900179
:1004E00018EEF0A3EFF090008C7401F090008CE017
:1004F000FFEFC394095049900093E0FEA3E0FF9002
:10050000008CE0FDED75F00BA424AFF582E434001F
:10051000F583EEF0A3EFF090008CE0FFEF75F00BA9
:10052000A424B1F582E43400F583E0FEA3E0FF905B
:100530000093EE8FF0120A5B90008CE004F080AC28
:100540001219CD22900082E4F07B007A00790090AD
:100550000084120C5190010EE4F0A3E4F0906000CE
:10056000E0FFEF5480FF7E00EF64804E60030208DE
:1005700012906001E0FFEF120C86073A00058A0630
:1005800007C60807E60A000009D5906003E0FFEF00
:10059000B40135123F22900089EEF0A3EFF09000F5
:1005A00089E0FEA3E0FF8F828E83A3120C5A900194
:1005B00010120C5190010EE4F0A37412F01235B237
:1005C000900082EFF00209D5906003E0FFEF640233
:1005D000706B906002E0FF1238D9900089EEF0A3B2
:1005E000EFF0900089E0FEA3E0FF8F828E83A312DC
:1005F0000C5A900110120C51900110120C48E92471
:1006000003F9EA3400FA1209DBFF7E00EF7F00FEF7
:10061000900110120C48E92402F9EA3400FA120998
:10062000DBFD7C00EE4CFEEF4DFF90010EEEF0A3E3
:10063000EFF01235B2900082EFF00209D59060031E
:10064000E0FFEF6403600302072F900087E4F07B74
:10065000FF7A4079DD900084120C51900087E0FF12
:10066000906002E0FEEED39F403D900084120C4863
:100670001209DBFFEF6030900084120C481209DB96
:10068000FF900088EFF0900084120C48900088E002
:10069000FF7E00E92FF9EA3EFA900084120C519097
:1006A0000087E004F080B4906002E0FFEFB4EE0C4D
:1006B0007BFF7A4179EB900084120C51906002E04C
:1006C000FFEF6030904098E493FF906002E0FEEE10
:1006D000B507217BFF7A41797C900084120C517B15
:1006E000017A017963122A157B017A0179639000FE
:1006F00084120C51900084120C481209DBFFEF7039
:10070000030209D5900084120C481209DBFF7E0019
:1007100090010EEEF0A3EFF0900084120C489001CF
:1007200010120C511235B2900082EFF00209D5126E
:10073000312B900082EFF00209D5906000E0FFEFCE
:100740005403FFEF120C86079400075102000009C2
:10075000D590010EE4F0A37402F0906004E0FFEF86
:10076000547FFFEF75F00BA424ABF582E43400F561
:1007700083E0FF9001C4EFF09001C5E4F07B017AC3
:100780000179C4900110120C511235B2900082EF21
:10079000F00209D590010EE4F0A37402F09000A3DA
:1007A000E0FF9001C4EFF09001C5E4F07B017A0115
:1007B00079C4900110120C511235B2900082EFF002
:1007C0000209D50209D590010EE4F0A37401F07B73
:1007D000017A0079A4900110120C511235B29000E8
:1007E00082EFF00209D590010EE4F0A37401F090BD
:1007F0006004E0FF740C2FF9E43401FA7B019001EE
:1008000010120C511235B2900082EFF00209D5029D
:1008100009D5906001E0FFEF120C8608B601094E81
:1008200003082E0508430908630B000009D59060F2
:1008300002E0FF90011DEFF0123F3D900082EFF0CB
:100840000209D5906002E0FF9000A4EFF090011A39
:100850007401F07F0112001A123F3D900082EFF008
:100860000209D5123088EF70030209D5906004E0C8
:10087000FF900083EFF0900083E0FF900116EFF00F
:1008800090011A7401F0120E35900083E0FF740C91
:100890002FF582E43401F583E0FF900083E0FE74DD
:1008A0001B2EF582E43401F583EFF0123F3D9000FA
:1008B00082EFF00209D5906000E0FFEF5403FFEFF4
:1008C000120C8608E600090C0108D002000009D5C8
:1008D000906002E0FFEF60030209D5121F4C900008
:1008E00082EFF00209D5906002E0FFEF640160033F
:1008F0000209D59000A3E0FFEF54FDFF9000A3EFA5
:10090000F0123F3D900082EFF00209D5906004E0C4
:10091000FFEFC3940240030209D5906004E0FF7426
:100920001E2FF582E43401F583C083C082E0FF907E
:100930006002E0FEEEF4FEEF5EFFD082D083EFF0C7
:10094000123F3D900082EFF00209D50209D5906078
:1009500000E0FFEF5403FFEF120C86097A00099CB8
:1009600001096802000009D5906002E0FFEF7065A0
:1009700012291E900082EFF0805B906002E0FFEF92
:10098000640170519000A3E0FFEF4402FF9000A3C8
:10099000EFF0123F3D900082EFF08039906004E06C
:1009A000FFEFC39402502E906004E0FF741E2FF5F9
:1009B00082E43401F583C083C082E0FF906002E0EE
:1009C000FEEEF4FEEF5EFFD082D083EFF0123F3DEB
:1009D000900082EFF0900082E0FF22BB0106898246
:1009E0008A83E0225002E722BBFE02E32289828A48
:1009F00083E49322BB010689828A83F0225002F7A6
:100A000022BBFE01F322BC000BBE0029EF8DF08457
:100A1000FFADF022E4CCF875F008EF2FFFEE33FEC7
:100A2000EC33FCEE9DEC984005FCEE9DFE0FD5F0FE
:100A3000E9E4CEFD22EDF8F5F0EE8420D21CFEAD07
:100A4000F075F008EF2FFFED33FD4007985006D505
:100A5000F0F222C398FD0FD5F0EA22C5F0F8A3E02A
:100A600028F0C5F0F8E582158270021583E038F0B1
:100A700022BB010A89828A83E0F5F0A3E0225006B6
:100A800087F009E71922BBFE07E3F5F009E3192215
:100A900089828A83E493F5F074019322BB010A8969
:100AA000828A83F0E5F0A3F0225006F709A7F01937
:100AB00022BBFE06F3E5F009F31922EF2BFFEE3A15
:100AC000FEED39FDEC38FC22E88FF0A4CC8BF0A4CD
:100AD0002CFCE98EF0A42CFC8AF0EDA42CFCEA8E10
:100AE000F0A4CDA8F08BF0A42DCC3825F0FDE98F33
:100AF000F0A42CCD35F0FCEB8EF0A4FEA9F0EB8F2A
:100B0000F0A4CFC5F02ECD39FEE43CFCEAA42DCEF6
:100B100035F0FDE43CFC2275F008758200EF2FFFF4
:100B2000EE33FECD33CDCC33CCC58233C5829BEDC5
:100B30009AEC99E58298400CF582EE9BFEED9AFDC9
:100B4000EC99FC0FD5F0D6E4CEFBE4CDFAE4CCF979
:100B5000A88222B800C1B90059BA002DEC8BF084EC
:100B6000CFCECDFCE5F0CBF97818EF2FFFEE33FEBA
:100B7000ED33FDEC33FCEB33FB10D703994004EB72
:100B800099FB0FD8E5E4F9FA227818EF2FFFEE333E
:100B9000FEED33FDEC33FCC933C910D7059BE99A50
:100BA0004007EC9BFCE99AF90FD8E0E4C9FAE4CCE1
:100BB000FB2275F010EF2FFFEE33FEED33FDCC334B
:100BC000CCC833C810D7079BEC9AE899400AED9B34
:100BD000FDEC9AFCE899F80FD5F0DAE4CDFBE4CC13
:100BE000FAE4C8F922EF4BFFEE4AFEED49FDEC486E
:100BF000FC22E8600FECC313FCED13FDEE13FEEFD7
:100C000013FFD8F122E8600FEFC333FFEE33FEEDA0
:100C100033FDEC33FCD8F122E0FCA3E0FDA3E0FEC1
:100C2000A3E0FF22E0F8A3E0F9A3E0FAA3E0FB22AF
:100C3000ECF0A3EDF0A3EEF0A3EFF022A42582F5F3
:100C400082E5F03583F58322E0FBA3E0FAA3E0F927
:100C500022EBF0A3EAF0A3E9F022E493FB74019302
:100C6000FA740293F922BB010789828A83020C4835
:100C70005005E9F8020E0CBBFE05E9F8020E2C89BE
:100C8000828A83020C5AD083D082F8E49370127463
:100C90000193700DA3A393F8740193F5828883E404
:100CA000737402936860EFA3A3A380DFE50E25822F
:100CB000F582E50D3583F583B50D0485820E22108E
:100CC000AF0685820EF50D2285820EF50DD2AF227C
:100CD000EC8EF0A4CCC5F0CCCDF8EFA4CEC5F02DB1
:100CE000FDE43CFCE8A42EC8C5F03DFDE43CFCEF6F
:100CF000A4FFE5F028FEE43DFDE43CFC22E709F614
:100D000008DFFA8046E709F208DFFA803E88828C25
:100D100083E709F0A3DFFA8032E309F608DFFA80FF
:100D20006EE309F208DFFA806688828C83E309F0BB
:100D3000A3DFFA805A89828A83E0A3F608DFFA806B
:100D40004E89828A83E0A3F208DFFA804280D28053
:100D5000FA80C680D4805580F28029801080A680D9
:100D6000EA809A80A880DA80E280CA802988848C10
:100D70008589828A83E493A30586F0A30586DFF53F
:100D8000DEF3800B89828A83E493A3F608DFF9EC13
:100D9000FAA9F0EDFB2288848C8589828A83E0A3FE
:100DA0000586F0A30586DFF6DEF480E389828A8378
:100DB000E493A3F208DFF980D688F0EF60010E4ECD
:100DC00060CD88F0ED2402B4040050C3F582EB241A
:100DD00002B4040050B92323458223900D4D73BB08
:100DE000010CE58229F582E5833AF583E02250067D
:100DF000E92582F8E622BBFE06E92582F8E222E533
:100E00008229F582E5833AF583E49322E6FB08E63E
:100E1000FA08E6F922F8E0FBA3A3E0F925F0F0E5F3
:100E200082158270021583E0FA38F022E2FB08E2B4
:100E3000FA08E2F9229000A4E0FFEFD394005003F7
:100E40000212169000A4E0FFEF14FF1238D99000B0
:100E500090EEF0A3EFF0900090E0FEA3E0FFEF240F
:100E600004FFEE3400FE900090EEF0A3EFF090004F
:100E700090E0FEA3E0FF8F828E83E493FF90008BCF
:100E8000EFF0900090E0FEA3E0FF8F828E83A3122C
:100E90000C5AAE02AF01900092EEF0A3EFF090007A
:100EA0008DE4F090008BE0FF90008DE0FEEEC39F9C
:100EB0004003021216900092E0FEA3E0FF8F828EA4
:100EC00083E493FF741B2FF582E43401F583E0FF84
:100ED000900092E0FCA3E0FD8D828C83E493FE748D
:100EE0000C2EF582E43401F583E0FEEE6F70030210
:100EF00011F5900092E0FEA3E0FF8F828E83E493D1
:100F0000FF740C2FF582E43401F583E0FF9000922A
:100F1000E0FCA3E0FD8D828C83740193FEEF6E6094
:100F2000030211F5900092E0FEA3E0FF8F828E8312
:100F3000E493FF906004E0FEEF6E60030211F59011
:100F40000092E0FEA3E0FF8F828E83740293FFEF96
:100F5000547FFF90008CEFF090008CE0FF7E00EF5C
:100F600024FFFFEE34FFFEEFC4F8540FC868FFEE15
:100F7000C454F048FE90008FEFF0900092E0FEA382
:100F8000E0FF8F828E83740393FFEF5403FF900082
:100F90008EEFF0900092E0FEA3E0FF8F828E8374CC
:100FA0000293FFEF5480FF7E00EF4E603C90008C78
:100FB000E0FFEF75F00BA424AAF582E43400F5837A
:100FC0007401F090008EE0FFEFB401047F0780020F
:100FD0007F0D90008CE0FEEE75F00BA424AEF58240
:100FE000E43400F583EFF0803990008CE0FFEF757A
:100FF000F00BA424AAF582E43400F583E4F0900019
:101000008EE0FFEFB401047F0580027F0990008C21
:10101000E0FEEE75F00BA424AEF582E43400F58317
:10102000EFF090008FE0FF7E00EF240EFFEE3460C3
:10103000FE8F828E837401F0900092E0FEA3E0FFA9
:101040008F828E83740493FE740593FF90008CE06E
:10105000FDED75F00BA424B1F582E43400F583EEC8
:10106000F0A3EFF0900092E0FEA3E0FF8F828E836A
:10107000740293FF90008CE0FEEE75F00BA424AD9B
:10108000F582E43400F583EFF0900092E0FEA3E0F7
:10109000FF8F828E83740393FF90008CE0FEEE75C9
:1010A000F00BA424A9F582E43400F583EFF090005E
:1010B0008CE0FFEF75F00BA424ACF582E43400F56E
:1010C00083E4F090008CE0FFEF75F00BA424B1F501
:1010D00082E43400F583E0FEA3E0FFEEFF7E0090A3
:1010E000008FE0FEEEFD7C00ED240CFDEC3460FC96
:1010F0008D828C83EFF090008CE0FFEF75F00BA4F5
:1011000024B1F582E43400F583E0FEA3E0FFEF5460
:10111000FFFF90008FE0FEEEFD7C00ED240DFDEC66
:101120003460FC8D828C83EFF090008CE0FFEF75D3
:10113000F00BA424AFF582E43400F583E0FEA3E0D5
:10114000FFEF54FFFF90008FE0FEEEFD7C00ED24EA
:1011500086FDEC3460FC8D828C83EFF090008CE097
:10116000FFEF75F00BA424AFF582E43400F583E0C3
:10117000FEA3E0FFEEFF7E0090008FE0FEEEFD7C20
:1011800000ED2487FDEC3460FC8D828C83EFF090C1
:10119000008CE0FFEF75F00BA424AFF582E434007F
:1011A000F583E0FEA3E0FFEF54FFFF90008FE0FE29
:1011B000EEFD7C00ED2484FDEC3460FC8D828C839C
:1011C000EFF090008CE0FFEF75F00BA424AFF582F8
:1011D000E43400F583E0FEA3E0FFEEFF7E00900024
:1011E0008FE0FEEEFD7C00ED2485FDEC3460FC8D8F
:1011F000828C83EFF0900092E0FEA3E0FFEF2407E3
:10120000FFEE3400FE900092EEF0A3EFF090008D20
:10121000E004F0020EA322E508245AF582E434002B
:10122000F583E005082290005730070390005AE448
:1012300075F001120E150209DB2000E97F2ED200A5
:101240008018EF540F2490D43440D4FF30040BEFB7
:1012500024BFB41A0050032461FFE5096002150998
:10126000050CE50C7002050B30070E900057E47575
:10127000F001120E15EF0209F4023E707403D2075A
:101280008003E4C207F508900057120C51E4F509F9
:10129000F50BF50CE50960077F2012125A80F575F1
:1012A0000AFFC201C200C202C203C205C206C208CE
:1012B000121226FF700D3007057F0012126BAF0C63
:1012C000AE0B22B4255FC2D5C204121226FF24D071
:1012D000B40A00501A75F00A780930D50508B6FF2F
:1012E0000106C6A426F620D5047002D20380D924B4
:1012F000CFB41A00EF5004C2E5D20402146CD2013C
:1013000080C6D20080C0D20280BCD2D580BAD205BD
:1013100080B47F2012125A2002077401B5090040E0
:10132000F1121217FF12125A021294D208D206803A
:1013300095121217FB121217FA121217F94A4B7074
:1013400006793D7A157BFF20022EE509602A7E0092
:101350008E82758300120DDF60060EEE650A70F056
:10136000C2D5EBC0E0EAC0E0E9C0E0EE1214B3D0B1
:10137000E0F9D0E0FAD0E0FB1209DBFF60AAEBC095
:10138000E0EAC0E0E9C0E012125AD0E02401F9D04E
:10139000E03400FAD0E0FBE50A0460DCD50AD9802D
:1013A000877BFF7A1479AFD202809C791080027912
:1013B00008C206C2088008D2D5790A8004790AC218
:1013C000D5E50A047002F50AE4FAFDFEFF121217D1
:1013D000FC7B08200113121217FD7B1030000A124B
:1013E0001217FE121217FF7B20EC3382D592D550D4
:1013F00013C3E43000069FFFE49EFEE42001039D3A
:10140000FDE49CFCE4CBF8C201EC700CCFCECDCC5B
:10141000E824F8F870F38017C3EF33FFEE33FEEDE6
:1014200033FDEC33FCEB33FB994002FB0FD8E9EBC7
:10143000300105F8D0E0C448B201C0E00AEC4D4EDE
:101440004F78207B0070C2EAB50A0040BCC0E012B1
:1014500014B5D0F0D0E0200104C4C0E0C4B201C093
:10146000F0121243D0F0D5F0EB021294120C861356
:10147000315313AB5813024C12FE4213AF4F13B744
:101480004413B74913174313BD5513A14613A14580
:1014900013A147155D5013062D130A2E132D2B1380
:1014A0000E23132B2015462A12C648000013253F91
:1014B0003F3F00790AA2D5200314300509B9100274
:1014C0000404B9080104A2D5200602500104200238
:1014D000689202B509005034C0E07F203003197FC4
:1014E00030A20272067205500F12150CC202C2061B
:1014F000C205C2087F30800F300503E9C0E0121238
:101500005A300503D0E0F9D0E0B509CC3005177F9B
:1015100030B9100C12125A7F583004077F788003BC
:10152000B9080312125A3002057F2D02125A7F2089
:101530002008F87F2B2006F322920280CF286E75B8
:101540006C6C2900D2011212173001F8C20178091F
:1015500030D50108F60212C62D5043495812121711
:101560002403B405004001E49015589312124B7403
:101570003A12124BD2037509040213AB90008DE4AA
:10158000F0906004E0FF90008EEFF0906000E0FFCC
:10159000EF5480FF7E00EF64804E60030216A1903E
:1015A0006001E0FFEF120C8616080116250216678F
:1015B0000315B806000017C6906003E0FFEFB421E2
:1015C0001D12281A90010EE0FEA3E0FFEF4E7003FB
:1015D0000217C61235B290008DEFF00217C6906068
:1015E00003E0FFEF642260030217C61225DF9001BB
:1015F0000EE0FEA3E0FFEF4E70030217C61235B2F5
:1016000090008DEFF00217C6121D8F90010EE0FEC4
:10161000A3E0FFEF4E70030217C61235B290008DA3
:10162000EFF00217C690008EE0FFEFC39402400374
:101630000217C6906002E0FFEF60030217C6900138
:101640000EE4F0A37401F090008EE0FF74BB2FF95C
:10165000E43401FA7B01900110120C511235B29062
:10166000008DEFF00217C690008EE0FFEFC39402EA
:1016700040030217C690010EE4F0A37401F090003D
:101680008EE0FF74B72FF9E43401FA7B019001106A
:10169000120C511235B290008DEFF00217C60217EE
:1016A000C6906000E0FFEF5480FF7E00EF4E6003C5
:1016B0000217C6906001E0FFEF120C8616C90916EA
:1016C000E60A17920B000017C6121D8F90010EE05C
:1016D000FEA3E0FFEF4E70030217C612381B900006
:1016E0008DEFF00217C690008EE0FFEFC39402402A
:1016F000030217C6906002E0FFEF60030217C69076
:101700006003E0FF90008EE0FE74BB2EF582E434AF
:1017100001F583EFF090008EE0FF74B92FF582E4BD
:101720003401F583E0FF90008EE0FE74BB2EF5825D
:10173000E43401F583E0FEEEC39F501390008EE089
:10174000FF74B92FF582E43401F583E4F080399019
:10175000008EE0FF74B92FF582E43401F583E0FFD9
:10176000EFD39401402290008EE0FF74BB2FF582EE
:10177000E43401F583E0FF90008EE0FE74B92EF5AD
:1017800082E43401F583EFF0123F3D90008DEFF0DD
:10179000803490008EE0FFEFC394025029906002E5
:1017A000E0FFEFD39401501E906002E0FF90008EA6
:1017B000E0FE74B72EF582E43401F583EFF0123FBA
:1017C0003D90008DEFF090008DE0FF22D2AF90446D
:1017D000F474FDF07D007F00123E47123FB47BFFA2
:1017E0007A3379ED123B2B12406FEF60FA124034DE
:1017F000123F88EF60347B017A007902123D00903D
:101800000000EEF0A3EFF0900000E0FEA3E0FFEF99
:101810004E6017123F9EEF60FA7B017A00790290CA
:101820000000E0FCA3E0FD1234C0123E1D90005603
:10183000EFF0900056E0FFEF60B6900056E0FFEF4B
:1018400020E00302192E123246C004C005C006C0B3
:10185000071240817E00900061EEF0A3EFF0D00708
:10186000D006D005D00490005D120C307B017A00C8
:101870007942C003C002C0017BFF7A3379FE900039
:101880005A120C51D001D002D00312127C7D007F7D
:101890000012398E7BFF7A34790C123B2B7D007F4E
:1018A0000012398E7B017A007942123B2B1240756F
:1018B000EF75F003A42494F582E43401F583120C4F
:1018C00048C003C002C00112407BEF75F003A4249E
:1018D00085F582E43401F583120C48900060120C07
:1018E00051D001D002D00390005D120C517B017ADF
:1018F000007942C003C002C0017BFF7A3479219095
:10190000005A120C51D001D002D00312127C7D007B
:101910007F0112398E7BFF7A34790C123B2B7D00CC
:101920007F0112398E7B017A007942123B2B9000A5
:1019300056E0FFEF20E1030217F0124066900056D8
:10194000EFF07B017A007942C003C002C0017BFF47
:101950007A34793190005A120C51900056E0FFEF22
:101960005401FF7E00EF4E60087BFF7A34793F80A0
:10197000067BFF7A34794290005D120C519000563C
:10198000E0FFEF5402FF7E00EF4E60087BFF7A34E9
:10199000793F80067BFF7A347942900060120C51C7
:1019A000D001D002D00312127C7D007F0112398E4B
:1019B0007BFF7A34790C123B2B7D007F0112398E2C
:1019C0007B017A007942123B2B0217F0229000999A
:1019D0007401F090009AE4F090009AE0FFEFC39455
:1019E000804003021BBB90009AE0FF7E00EF248042
:1019F000FFEE3460FE8F828E83740CF0900099E0CD
:101A0000FFEF75F00BA424AEF582E43400F583E01B
:101A1000FFEF604F900099E0FFEF75F00BA424AD4D
:101A2000F582E43400F583E0FFEF5480FF7E00EFA1
:101A30004E601890009AE0FF7E00EF240EFFEE3417
:101A400060FE8F828E83740CF0802E90009AE0FFEF
:101A50007E00EF240EFFEE3460FE8F828E837408CA
:101A6000F0801690009AE0FF7E00EF240EFFEE3427
:101A700060FE8F828E837480F0900099E0FFEF7596
:101A8000F00BA424B1F582E43400F583E0FEA3E07A
:101A9000FFEEFF7E0090009AE0FEEEFD7C00ED245C
:101AA0000CFDEC3460FC8D828C83EFF0900099E0AB
:101AB000FFEF75F00BA424B1F582E43400F583E068
:101AC000FEA3E0FFEF54FFFF90009AE0FEEEFD7CE6
:101AD00000ED240DFDEC3460FC8D828C83EFF090E2
:101AE0000099E0FFEF75F00BA424AFF582E4340019
:101AF000F583E0FEA3E0FFEF54FFFF90009AE0FEC5
:101B0000EEFD7C00ED2486FDEC3460FC8D828C8340
:101B1000EFF0900099E0FFEF75F00BA424AFF58291
:101B2000E43400F583E0FEA3E0FFEEFF7E009000CA
:101B30009AE0FEEEFD7C00ED2487FDEC3460FC8D28
:101B4000828C83EFF0900099E0FFEF75F00BA424F6
:101B5000AFF582E43400F583E0FEA3E0FFEF54FF2D
:101B6000FF90009AE0FEEEFD7C00ED2484FDEC3455
:101B700060FC8D828C83EFF0900099E0FFEF75F0B0
:101B80000BA424AFF582E43400F583E0FEA3E0FF6C
:101B9000EEFF7E0090009AE0FEEEFD7C00ED2485D5
:101BA000FDEC3460FC8D828C83EFF0900099E004B2
:101BB000F090009AE02410F00219D890600A74FFA7
:101BC000F02290005CEFF090005D120C5190005CF0
:101BD000E0FFEFD394005003021D8E90005CE0FF05
:101BE000EFC394094003021D8E90005CE0FF7E006D
:101BF000EF24FFFFEE34FFFEEFC4F8540FC868FF78
:101C0000EEC454F048FE900062EFF0900062E0FFF6
:101C10007E00EF2488FFEE3460FE900063EEF0A3B8
:101C2000EFF090005CE0FFEF75F00BA424AFF582BD
:101C3000E43400F583E0FEA3E0FFC3E49FFF7402F9
:101C40009EFE900060E0FCA3E0FDD3ED9FEC9E4083
:101C50002890005CE0FFEF75F00BA424AFF582E460
:101C60003400F583E0FEA3E0FFC3E49FFF74029E0F
:101C7000FE900060EEF0A3EFF0900060E0FEA3E0C5
:101C8000FFEEFF7E0090005CE0FEEE75F00BA424FA
:101C9000ACF582E43400F583E0FEEF4EFF90006285
:101CA000E0FEEEFD7C00ED240CFDEC3460FC8D824A
:101CB0008C83EFF0900060E0FEA3E0FFEF54FFFFA5
:101CC000900062E0FEEEFD7C00ED240DFDEC346042
:101CD000FC8D828C83EFF07B007A007900C003C01A
:101CE00002C00190005D120C48D082D083D0E06B1E
:101CF0007008E965827003EA65836051900065E4CD
:101D0000F0A3E4F0900060E0FEA3E0FF900065E047
:101D1000FCA3E0FDC3ED9FEC9E503290005D120CE1
:101D200048900065E0FEA3E0FFE92FF9EA3EFA12D1
:101D300009DBFF900063E0FCA3E0FD8D828C83EF64
:101D4000F0900065E475F001120A5B80B790005CCA
:101D5000E0FFEF75F00BA424AAF582E43400F583CC
:101D6000E4F090005CE0FFEF75F00BA424AEF58288
:101D7000E43400F583E0FF900062E0FEEEFD7C00BD
:101D8000ED240EFDEC3460FC8D828C83EFF022900C
:101D9000010EE4F0A3E4F09000A4E0FFEF14FF12C2
:101DA00038D990008FEEF0A3EFF0906003E0FF9041
:101DB0000095EFF0906004E0FF900094EFF0900049
:101DC00094E0FF7E00EF2402FFEE3400FEEF780285
:101DD000C333CE33CED8F9FF90008FE0FCA3E0FDF3
:101DE000EF2DFFEE3CFE90008FEEF0A3EFF09000A1
:101DF0008FE0FEA3E0FF8F828E83A3120C5AAE0207
:101E0000AF0190008FEEF0A3EFF0900094E0FFEFB1
:101E1000C394024003021F4B900094E0FF740C2F08
:101E2000F582E43401F583E0FF7E04EF8EF0A4FF39
:101E3000AEF090008FE0FCA3E0FDEF2DFFEE3CFE46
:101E400090008FEEF0A3EFF090008FE0FEA3E0FF94
:101E50008F828E83A3120C5AAE02AF0190008FEED8
:101E6000F0A3EFF0900095E0FFEFC3940150030260
:101E70001F4B900095E0FFEFD394034003021F4BEC
:101E8000900095E0FF7E00EF24FFFFEE34FFFEEFB1
:101E90007802C333CE33CED8F9FF90008FE0FCA395
:101EA000E0FDEF2DFFEE3CFE90008FEEF0A3EFF093
:101EB000906002E0FF900095EFF090008FE0FEA3AD
:101EC000E0FF8F828E83E493FF900095E0FEEFC3E6
:101ED0009E407890008FE0FEA3E0FF8F828E83A368
:101EE000120C5A900091120C51900095E0FF7E0860
:101EF000EF8EF0A4FFAEF0900091120C48E92FF99C
:101F0000EA3EFA900091120C51900091120C48E9AF
:101F10002402F9EA3400FA120C66900110120C51F6
:101F2000900091120C48120A71FFAEF090010EEE73
:101F3000F0A3EFF0900091120C48E92405F9EA347F
:101F400000FA120C66900113120C512290008DE4DD
:101F5000F0906004E0FFEF547FFF90008BEFF09073
:101F6000008BE0FF7E00EF24FFFFEE34FFFEEFC4A6
:101F7000F8540FC868FFEEC454F048FE90008CEF90
:101F8000F090008BE0FFEFD3940050030220BA9052
:101F9000008BE0FFEFC3940940030220BA90008B4E
:101FA000E0FFEF75F00BA424ABF582E43400F58379
:101FB000E0FFEF54FEFFEFF090008BE0FFEF75F0D5
:101FC0000BA424ACF582E43400F583E4F090008C9B
:101FD000E0FF7E00EF240CFFEE3460FE8F828E83E4
:101FE000E0FFEF547FFFEFF090008BE0FFEF75F024
:101FF0000BA424AAF582E43400F583E0FFEF54FD3E
:10200000FFEFF090008BE0FFEF75F00BA424ADF52F
:1020100082E43400F583E0FFEF5480FF7E00EF4E52
:10202000604990008BE0FFEF75F00BA424AAF582C5
:10203000E43400F583E0FFEFB4011890008CE0FF7A
:102040007E00EF240EFFEE3460FE8F828E83740CD0
:10205000F0805F90008CE0FF7E00EF240EFFEE34F6
:1020600060FE8F828E83740DF0804790008BE0FFBE
:10207000EF75F00BA424AAF582E43400F583E0FFA9
:10208000EFB4011890008CE0FF7E00EF240EFFEE0D
:102090003460FE8F828E837408F0801690008CE08E
:1020A000FF7E00EF240EFFEE3460FE8F828E83747D
:1020B00009F0123F3D90008DEFF090008DE0FF227F
:1020C000C0E0C0F0C083C082C085C084C086758671
:1020D00000C093759300C0D075D000C000C001C08F
:1020E00002C003C004C005C006C007906028E0FF1E
:1020F00090007FEFF090007FE0FFEF5410FF7E0034
:10210000EF4E700302220E9000807401F090007F69
:10211000E0FFEF5480FF7E00EF4E603190007FE0E3
:10212000FFEF540FFF7E00EF64014E6007900080C8
:10213000E4F080461231BD9000A5E0FFEF5480FF2F
:102140007E00EF4E6034900080E4F0802D90007FA0
:10215000E0FFEF5440FF7E00EF4E6005123EBD8071
:102160001990007FE0FFEF5420FF7E00EF4E6005E6
:10217000123D978005900080E4F0900080E0FFEF32
:10218000700302220E906028E0FF90007FEFF09035
:10219000007FE0FFEF5480FF7E00EF4E70709000F4
:1021A000A8E0FF9000A0E0FEEE4FFF90007FEFF070
:1021B00090007FE0FF906029EFF0906029E0FF90B1
:1021C000007FE0FEEE6F70469000A5E0FF9000807B
:1021D000EFF0906028E0FFEF5480FF90007FEFF079
:1021E00090007FE0FFEF70189000A5E0FF9060285E
:1021F000EFF0906028E0FFEF540FFF900080EFF0C9
:102200009000A5E0FF900080E0FEEEB507BAD00791
:10221000D006D005D004D003D002D001D000D0D059
:10222000D093D086D084D085D082D083D0F0D0E037
:102230003290480074C0F0122BF17B007A4679E8A6
:1022400012404EEF4405FD7B007A4679E812405A71
:10225000750A00E50AC39408503AAF0AEF75F00515
:10226000A4249EF582E43442F583AF82AE838E08C7
:102270008F09AE08AF098F828E83120C5AAE08AF59
:10228000098F828E83740393FC740493FD123F576D
:10229000050A80BF7E427F3F123D697B017A5079FB
:1022A0000312404EEF4402FD7B017A507903124045
:1022B0005A7B017A50791312404EEF4402FD7B01A4
:1022C0007A50791312405A9043A0E0FFEF4440FF48
:1022D0009043A0EFF09043C2E0FFEF4410FF904323
:1022E000C2EFF07C427D257B007A5179F07F0A7E37
:1022F00000123E977C427D2F7B007A5179127F0835
:102300007E00123E977C427D377B007A5179227F96
:10231000087E00123E979044F47401F0904322E04E
:10232000FFEF4408FF904322EFF09046ECE0FFEF10
:10233000C394055006904689743AF07B017A50792F
:10234000077D4012405A7B017A5079177D40124038
:102350005A123CCA7B007A4379A0C003C002C00174
:102360007B007A4379B0900005120C51D001D00265
:10237000D0037F0E7E00123D359043B0E0FFEF5456
:10238000FDFFEFF022905120E0FFEF5480FFEFF0CF
:10239000905122E0FFEF54F0FF90005FEFF09000CB
:1023A0005FE0FFEF440FFF905122EFF0905123E0E8
:1023B000FFEF54F0FF90005FEFF090005FE0FF90C0
:1023C0005123EFF0905124E0FFEF54F0FF90005FB5
:1023D000EFF090005FE0FF905124EFF0905120E08B
:1023E000FFEF54DFFFEFF0905120E0FFEF4440FF9C
:1023F000EFF07F007E00123DC4905120E0FFEF44DB
:1024000010FFEFF07F017E00123DC4905121E0FFEC
:1024100090005FEFF0905120E0FFEF54EFFFEFF0FE
:102420007F007E00123DC490005FE0FFEF5408FF84
:1024300090005FEFF0905120E0FFEF4410FFEFF0CD
:102440007F017E00123DC4905120E0FFEF54EFFF6A
:10245000EFF090005FE0FFEF7098905120E0FFEF09
:1024600054BFFFEFF0905120E0FFEF5480FFEFF0FA
:10247000905122E0FFEF54F0FFEFF0905123E0FF86
:10248000EF54F0FF90005FEFF090005FE0FFEF444B
:102490000FFF905123EFF0905124E0FFEF54F0FF35
:1024A00090005FEFF090005FE0FFEF440FFF90516E
:1024B00024EFF02290005AEFF090005B120C519044
:1024C000005AE0FFEFD3940050030225CE90005A4B
:1024D000E0FFEFC3940940030225CE7B007A007928
:1024E00000C003C002C00190005B120C48D082D033
:1024F00083D0E06B7008E965827003EA658370033E
:102500000225CE90005AE0FF7E00EF24FFFFEE345C
:10251000FFFEEFC4F8540FC868FFEEC454F048FE45
:10252000900060EFF0900060E0FF7E00EF2488FFF5
:10253000EE3460FE900061EEF0A3EFF090005AE000
:10254000FF122F25900065EEF0A3EFF0900065E0FC
:10255000FEA3E0FF90005EE0FCA3E0FDD3ED9FEC66
:102560009E4010900065E0FEA3E0FF90005EEEF05C
:10257000A3EFF0900063E4F0A3E4F090005EE0FECF
:10258000A3E0FF900063E0FCA3E0FDC3ED9FEC9EA1
:102590005032900061E0FEA3E0FF8F828E83E0FF67
:1025A00090005B120C48900063E0FCA3E0FDE92D75
:1025B000F9EA3CFAEF1209F4900063E475F00112B5
:1025C0000A5B80B790005AE0FF12334D80089000FC
:1025D0005EE4F0A3E4F090005EE0FEA3E0FF229052
:1025E00000A4E0FFEF14FF1238D990008FEEF0A3A3
:1025F000EFF0906004E0FF900094EFF0900094E022
:10260000FF7E00EF2402FFEE3400FEEF7802C333BA
:10261000CE33CED8F9FF90008FE0FCA3E0FDEF2D84
:10262000FFEE3CFE90008FEEF0A3EFF090008FE005
:10263000FEA3E0FF8F828E83A3120C5AAE02AF017D
:1026400090008FEEF0A3EFF0900094E0FF740C2F59
:10265000F582E43401F583E0FF7E04EF8EF0A4FF01
:10266000AEF090008FE0FCA3E0FDEF2DFFEE3CFE0E
:1026700090008FEEF0A3EFF090008FE0FEA3E0FF5C
:102680008F828E83A3120C5AAE02AF0190008FEEA0
:10269000F0A3EFF090008FE0FEA3E0FFEF240CFF2B
:1026A000EE3400FE90008FEEF0A3EFF090008FE08C
:1026B000FEA3E0FF8F828E83A3120C5A900091122A
:1026C0000C51900091120C48E92401F9EA3400FA07
:1026D0001209DBFF7E00EF7F00FE900091120C4894
:1026E0001209DBFD7C00EE4CFEEF4DFF90010EEE7B
:1026F000F0A3EFF0900091120C48E92402F9EA34BB
:1027000000FA900110120C5122123FC9900059EFAB
:10271000F09043A5E0FFEF4401FFEFF09043B5E0F8
:10272000FFEF4401FFEFF090609D7401F0906009AD
:102730007402F0906010E0FFEF547FFFEFF07F0035
:102740007E00123DC4904394E0FFEF54F9FFEFF098
:10275000906012E0FFEF54DFFFEFF0904394E0FF52
:10276000EF4401FFEFF07F017E00123DC47F287E21
:1027700000123DC49051F8E0FFEF547FFFEFF0905E
:1027800051F8E0FFEF54BFFFEFF0904394E0FFEF0C
:102790004402FFEFF07F027E00123DC4904394E0BC
:1027A000FFEF4404FFEFF0906084E4F0906085E474
:1027B000F0900059E0FF123F707C3A7D3C7F171289
:1027C00032CB7D077F1712387A7C407D877F1512C8
:1027D00032CB7D077F1512387A7C207DC07F18129E
:1027E00032CB7D077F1812387A7C367D1E7F00122F
:1027F00032CB7D077F0012387A7C367D857F0112CF
:1028000032CB7D077F0112387A7C367DEC7F021255
:1028100032CB7D077F0212387A229000A4E0FFEFCE
:1028200014FF1238D990008FEEF0A3EFF0906004FF
:10283000E0FF900094EFF0900094E0FF7E00EF2422
:1028400002FFEE3400FEEF7802C333CE33CED8F968
:10285000FF90008FE0FCA3E0FDEF2DFFEE3CFE902B
:10286000008FEEF0A3EFF090008FE0FEA3E0FF8F6B
:10287000828E83A3120C5AAE02AF0190008FEEF04D
:10288000A3EFF0900094E0FF740C2FF582E4340184
:10289000F583E0FF7E04EF8EF0A4FFAEF090008F92
:1028A000E0FCA3E0FDEF2DFFEE3CFE90008FEEF08C
:1028B000A3EFF090008FE0FEA3E0FF8F828E83A352
:1028C000120C5AAE02AF0190008FEEF0A3EFF09021
:1028D000008FE0FEA3E0FFEF2410FFEE3400FE9037
:1028E000008FEEF0A3EFF090008FE0FEA3E0FF8FEB
:1028F000828E83A3120C5A900091120C5190009179
:10290000120C481209DBFF7E0090010EEEF0A3EFDF
:10291000F0900091120C48900110120C512290007E
:102920008DE4F0906004E0FFEF547FFF90008BEFA8
:10293000F090008BE0FF7E00EF24FFFFEE34FFFEFF
:10294000EFC4F8540FC868FFEEC454F048FE90007E
:102950008CEFF090008BE0FFEFD394005003022A3D
:102960000F90008BE0FFEFC394094003022A0F9001
:10297000008BE0FFEF75F00BA424ABF582E434008C
:10298000F583E0FFEF4401FFEFF090008BE0FFEFF5
:1029900075F00BA424ACF582E43400F583E4F090E8
:1029A000008BE0FFEF75F00BA424AAF582E434005D
:1029B000F583E0FFEF4402FFEFF090008BE0FFEFC4
:1029C00075F00BA424ADF582E43400F583E0FFEF4D
:1029D0005480FF7E00EF4E601890008CE0FF7E0078
:1029E000EF240EFFEE3460FE8F828E83748DF080B4
:1029F0001690008CE0FF7E00EF240EFFEE3460FEA8
:102A00008F828E837489F0123F3D90008DEFF0909D
:102A1000008DE0FF2290008B120C5190008FE4F0AB
:102A20007B007A007900C003C002C00190008B12C5
:102A30000C48D082D083D0E06B7008E965827003C7
:102A4000EA65837003022B0690008B120C487422F7
:102A50001209F490008B120C48E92401F9EA3400C1
:102A6000FA74031209F490008E7402F090008EE064
:102A7000FFEFC394224003022B0690008FE0FFE497
:102A8000FCFDFEEF2400FFEE3401FEED340CFDEC06
:102A90003400FCA907AA06AB0512404E900090EF47
:102AA000F090008FE004F0900090E0FFEFC4540F2E
:102AB000FFEF9042C693FF90008B120C4890008E5F
:102AC000E0FEE92EF9E43AFAEF1209F4900090E002
:102AD000FFEF540FFFEF9042C693FF90008EE0FE91
:102AE000EEFD7C00ED2402FDEC3400FC90008B1226
:102AF0000C48E92DF9EA3CFAEF1209F490008EE057
:102B00002404F0022A6C22759300780075834675C0
:102B100082E8E04401F0009046ECE0F99046FAE0EB
:102B2000FAB903225420B40012B8001AEA901FFF29
:102B3000F07401901FFEF09046F6F0901FFEE060EA
:102B400005901FFFE0FA90480074C0F07581219055
:102B5000000078007920E4F0A3D8FCD9FAEA9001CB
:102B6000A6F0020011750D1F750EFD122231022B09
:102B7000AC0217CCE493A3F8E493A34003F68001DE
:102B8000F208DFF48029E493A3F85407240CC8C3A7
:102B900033C4540F4420C8834004F456800146F6E1
:102BA000DFE4800B0102040810204080903ADDE44D
:102BB0007E019360BCA3FF543F30E509541FFEE43F
:102BC00093A360010ECF54C025E060A840B8E49301
:102BD000A3FAE493A3F8E493A3C8C582C8CAC58343
:102BE000CAF0A3C8C582C8CAC583CADFE9DEE780C8
:102BF000BE9043007406F09042007452F07B0C7A51
:102C000001790F12404E9046A1EFF07B007A427995
:102C1000227D187C081240257B007A4279207D5164
:102C20007C12124025900004E4F07F197E007D00A4
:102C30007C00900000120C30900000120C18D3EFB2
:102C40009400EE9400404E900004E0FFEF640360B7
:102C500044904225E0FFEF5401FF7E00900004E025
:102C6000FEEE25E0FEEE4FFFEF5403FF900004EF71
:102C7000F07FE07E017D007C00123C00900000129D
:102C80000C187BFF7AFF79FF78FF120ABB900000D7
:102C9000120C3080A3900000120C18EF4E70057FCC
:102CA00003123FF37B007A4079047D007C011240DF
:102CB000259040047407F0904006E4F090400874BA
:102CC00048F0904004E4F0904009E4F09040017432
:102CD00002F022900091E4F0900117E0FF7E009056
:102CE00000A6EE8FF0120A5B90010EE0FEA3E0FF5B
:102CF000D3EF9400EE94004053900091E0FFEFC3B7
:102D000094085048900110120C481209DBFF900003
:102D100091E0FEEEFD7C00ED2400FDEC3460FC8DC6
:102D2000828C83EFF0900110120C48E92401F9EA3B
:102D30003400FA900110120C51900091E004F090D0
:102D4000010E74FF75F0FF120A5B809C900117E082
:102D5000FFEF6408600B900091E0FFEFD394004018
:102D60001C9000A0E0FFEF6480FF9000A0EFF090C7
:102D700000A5740FF09000A17402F0800C9000A5E3
:102D80007402F09000A17402F0900091E0FF9001B5
:102D900017EFF0900091E0FF9000A8EFF022900074
:102DA00059EFF090005AEDF090005BE4F090005B7A
:102DB000E0FFEFC39402501A90005BE0FF74B72F5E
:102DC000F582E43401F5837401F090005BE004F0D7
:102DD00080DB9044C27480F09044C37401F090444E
:102DE000C07401F09044C07402F09044C07404F0C8
:102DF0009000A1E4F090005AE0FFEF120C862E083C
:102E0000002E100100002E189060097402F0800E50
:102E10009060097403F080069060097402F09000DD
:102E200059E0FF9000A2EFF09000A4E4F0900116AA
:102E3000E4F090011AE4F090011DE4F09000A3E4A6
:102E4000F0900117E4F09060287403F0906008742B
:102E500080F07F017E007D007C00123C00906012BB
:102E60007404F02290008DE4F0906000E0FFEF54D5
:102E700080FF7E00EF64804E7031906001E0FFEFD4
:102E8000120C862E8A2100002F1F90010EE4F0A361
:102E90007407F07B017A0179AD900110120C511288
:102EA00035B290008DEFF080768074906000E0FF86
:102EB000EF5480FF7E00EF4E7065906001E0FFEF01
:102EC000120C862ECD202EFA2200002F1F90010E0C
:102ED000E4F0A37407F07B017A0179AD9001101240
:102EE0000C519001B6E0FFEF4401FF9001B6EFF006
:102EF00012381B90008DEFF08025906002E0FF7E7D
:102F0000009001ABEEF0A3EFF09001B6E0FFEF44CC
:102F100002FF9001B6EFF0123F3D90008DEFF09070
:102F2000008DE0FF22900067EFF0900069E4F0A3CD
:102F3000E4F0900067E0FFEFD394005003022FD13C
:102F4000900067E0FFEFC394094003022FD1900087
:102F500067E0FF7E00EF24FFFFEE34FFFEEFC4F8D2
:102F6000540FC868FFEEC454F048FE900068EFF0BC
:102F7000900068E0FF7E00EF240CFFEE3460FE8FCF
:102F8000828E83E0FFEF540FFF7E00900069EEF029
:102F9000A3EFF0900068E0FF7E00EF240DFFEE3419
:102FA00060FE8F828E83E0FFEFFD7C00900069E081
:102FB000FEA3E0FFEF7F00FEEE4CFEEF4DFF900022
:102FC00069EEF0A3EFF090006974FF75F0FE120A4D
:102FD0005B900069E0FEA3E0FF22900082E4F090A5
:102FE0006029E0FFEF540FFFEF24FEFF900081EF18
:102FF000F0900081E0FF7E009000A6EE8FF0120AB4
:103000005B90010EE0FEA3E0FFD3EF9400EE94008E
:103010004057900081E0FFEFD39400404C90008235
:10302000E0FF7E00EF2400FFEE3460FE8F828E838F
:10303000E0FF900110120C48EF1209F490011012F9
:103040000C48E92401F9EA3400FA900110120C51FD
:10305000900082E004F0900081E014F090010E7482
:10306000FF75F0FF120A5B8098900081E0FF9000EE
:10307000A8EFF09000A0E0FFEF6480FF9000A0EFC9
:10308000F09000A5740BF02290008B7401F090601A
:1030900004E0FF90008CEFF09000A4E0FFEF14FF3D
:1030A0001238D990008DEEF0A3EFF090008DE0FE85
:1030B000A3E0FF8F828E83A3120C5AE92404F9EA5D
:1030C0003400FA1209DBFF90008FEFF090008FE0E0
:1030D000FF90008CE0FEEEC39F500B90008CE0FF51
:1030E000EFC39402400790008BE4F0803890008C8E
:1030F000E0FF740C2FF582E43401F583E0FF9000CB
:103100008CE0FE741B2EF582E43401F583EFF09021
:103110006002E0FF90008CE0FE740C2EF582E43437
:1031200001F583EFF090008BE0FF2290008BE4F03C
:1031300090008CE4F0906000E0FFEF5403FFEF128A
:103140000C86314C0131580200003176906004E069
:10315000FF90008CEFF0801E906004E0FFEF547F42
:10316000FFEF75F00BA424B3F582E43400F583E09F
:10317000FF90008CEFF090008CE0FF900118E0FCD5
:10318000A3E0FD8D828C83E5822FF582E43583F503
:1031900083E493FFEF120C8631B70131AF0231A502
:1031A00003000031B712157C90008BEFF0800812FD
:1031B0002E6490008BEFF090008BE0FF229060284F
:1031C000E0FF900081EFF0900081E0FF906028EF39
:1031D000F0906028E0FF900081EFF0900081E0FF28
:1031E000EF5480FF7E00EF4E600B900081E0FF9077
:1031F00000A5EFF0227F021237B9906000E0FFEFE8
:103200005460FFEF120C86321400321E2032284028
:1032100000003232120544900081EFF08019123123
:103220002B900081EFF0800F123A8D900081EFF02B
:103230008005900081E4F0900081E0FFEF7006903F
:1032400000A57403F0229001B0E0FFE4FCFDFE90C5
:103250000057120C30900057120C187808120C0509
:10326000A804A905AA06AB079001AFE0FFE4FCFDA6
:10327000FE120BE5900057120C30900057120C18FC
:103280007808120C05A804A905AA06AB079001AEA0
:10329000E0FFE4FCFDFE120BE5900057120C3090AD
:1032A0000057120C187808120C05A804A905AA06E4
:1032B000AB079001ADE0FFE4FCFDFE120BE59000D2
:1032C00057120C30900057120C182290005AEFF051
:1032D00090005BECF0A3EDF090005AE0FFEFD39488
:1032E0001F5003D38001C340057F00123FDE9000D2
:1032F0005AE0FFEF541FFF7E00EF25E0FFEE33FEA4
:10330000EF2400FFEE3444FEAA06A9077B01124019
:103310001890005DEEF0A3EFF090005AE0FF7E02FF
:10332000EF8EF0A4FFAEF0EF2400FFEE3444FEAACF
:1033300006A9077B0190005BE0FEA3E0FFAD07ACB0
:103340000612402790005DE0FEA3E0FF2290006798
:10335000EFF0900067E0FFEFD39400406E900067BD
:10336000E0FFEFC394095063900067E0FF7E00EF39
:1033700024FFFFEE34FFFEEFC4F8540FC868FFEEE1
:10338000C454F048FE900068EFF0900067E0FFEF53
:1033900075F00BA424AAF582E43400F583E4F090E0
:1033A0000067E0FFEF75F00BA424AEF582E4340073
:1033B000F583E0FF900068E0FEEEFD7C00ED240E5A
:1033C000FDEC3460FC8D828C83EFF0224E6F6E65D5
:1033D000004F6464004576656E004D61726B00536A
:1033E00070616365003100312E3500320055534263
:1033F0002D55415254206578616D706C65004252C4
:103400003A25346C642C44423A2564002020202064
:1034100020202020202020202020202020202020AC
:103420000053423A25732C5061726974793A2573BE
:10343000004454523A25732C5254533A2573004F8A
:103440004E004F4646007F287E007D007C001237EC
:10345000537F03123C4B7F057E007D007C001237BA
:10346000537F03123C4B7F0F7E007D007C001237A0
:10347000537F03123C4B7F017E007D007C0012379E
:10348000537F02123C4B7F057E007D007C0012378B
:10349000537F06123C947F0E123C947F2C123C9476
:1034A0007F08123C947F01123C947F0C123C947F65
:1034B00003123C947F057E007D007C00123753226E
:1034C000900057120C5190005AECF0A3EDF09001CF
:1034D000B4E0FFEF75F00BA424B1F582E43400F5FD
:1034E00083E0FEA3E0FF90005AE0FCA3E0FDD3EDF3
:1034F0009FEC9E40259001B4E0FFEF75F00BA424F3
:10350000B1F582E43400F583E0FEA3E0FF90005AB9
:10351000EEF0A3EFF07F00123FDE9001B4E0FF90E9
:103520000057120C4890005AE0FCA3E0FD900060A8
:10353000ECF0A3EDF0121BC2229000A4E0FFEF1408
:10354000FF1238D9900099EEF0A3EFF0900099E0C7
:10355000FEA3E0FF8F828E83A3120C5AE92404F9A4
:10356000EA3400FA1209DBFF90009BEFF090009B19
:10357000E0FF7E00EF2402FFEE3400FEEF7802C38E
:1035800033CE33CED8F9FF900099E0FCA3E0FDEFF5
:103590002DFFEE3CFE900099EEF0A3EFF090009925
:1035A000E0FEA3E0FF8F828E83A3120C5AAE02AF1F
:1035B000012290010EE0FEA3E0FFEF4E7005123FE6
:1035C0000380589000A17402F09000A0E4F0123B38
:1035D00079906007E0FF7E00EF7F00FE906006E0DC
:1035E000FD7C00EE4CFEEF4DFF90008FEEF0A3EF60
:1035F000F090008FE0FEA3E0FF90010EE0FCA3E05E
:10360000FDD3ED9FEC9E401090008FE0FEA3E0FF05
:1036100090010EEEF0A3EFF0122CD37F0122C0E058
:10362000C083C082C085C084C086758600C0937583
:103630009300C0D075D000C006C00790600EE0FFB8
:103640009000B4E0FFEF5403FF7E00EF64014E6092
:103650000E9000B7E0FFEF6480FF9000B7EFF090AE
:1036600000B57401F090600BE0FFEF54FEFFEFF047
:10367000D007D006D0D0D093D086D084D085D08249
:10368000D083D0E032C0E0C083C082C085C084C097
:1036900086758600C093759300C0D075D000C006B3
:1036A000C00790601EE0FF9000BFE0FFEF5403FFF3
:1036B0007E00EF64014E600E9000C2E0FFEF648078
:1036C000FF9000C2EFF09000C07401F090600BE03A
:1036D000FFEF54FDFFEFF0D007D006D0D0D093D04D
:1036E00086D084D085D082D083D0E032C0E0C08341
:1036F000C082C085C084C086758600C09375930063
:10370000C0D075D000C006C00790602EE0FF9000CA
:10371000CAE0FFEF5403FF7E00EF64014E600E909D
:1037200000CDE0FFEF6480FF9000CDEFF09000CB84
:103730007401F090600BE0FFEF54FBFFEFF0D00757
:10374000D006D0D0D093D086D084D085D082D083FC
:10375000D0E03290FFFC120CAC120C30850D83854A
:103760000E82120C18D3EF9400EE9480402F90013B
:10377000A7120C18123C00850D83850E82C083C0F1
:1037800082120C18EF2400FFEE3480FEED34FFFDB2
:10379000EC34FFFCD082D083120C3080BF90019DAE
:1037A000120C18850D83850E82120C24120AC81281
:1037B0003C00900004120CAC22900082EFF07B00E1
:1037C0007A007900C003C002C001900113120C48B6
:1037D000D082D083D0E06B7008E965827003EA651F
:1037E000836037900082E0FF900113120C48EF12C3
:1037F00009F49000A6E0FEA3E0FF900113120C482C
:10380000E92401F9EA3400FAEE8FF0120A9C7B00F9
:103810007A007900900113120C51229000A17404D7
:10382000F09000A07480F0123B79906007E0FF7E7A
:1038300000EF7F00FE906006E0FD7C00EE4CFEEFA6
:103840004DFF90008FEEF0A3EFF090008FE0FEA30D
:10385000E0FF90010EE0FCA3E0FDD3ED9FEC9E4065
:103860001090008FE0FEA3E0FF90010EEEF0A3EFBA
:10387000F09000A5740BF07F012290005AEFF090B9
:10388000005BEDF090005BE0FFEFD394075003D3B3
:103890008001C340057F00123FDE90005AE0FFEF39
:1038A000D3941F5003D38001C340057F00123FDE35
:1038B00090005BE0FFEF5407FF7E00EF75F020A45F
:1038C000FFAEF090005AE0FEEE541FFE74802EF51D
:1038D00082E43444F583EFF02290009CEFF09000F6
:1038E000A2E0FFEF25E025E024E8F582E43441F58D
:1038F00083120C5AAE02AF0190009DEEF0A3EFF0E0
:1039000090009DE0FEA3E0FF8F828E83C083C08283
:1039100090009CE0FFD082D08375F004EF120C3C45
:10392000E5822405F582E5833400F583120C5AAE56
:1039300002AF012290009FE4F090009FE0FFEFC3F0
:103940009402501A90009FE0FF74B72FF582E43480
:1039500001F5837401F090009FE004F080DB90009B
:10396000A1E4F09000A4E4F0900116E4F090011AB4
:10397000E4F090011DE4F09000A3E4F0900117E45E
:10398000F09060287403F09060087480F02290003A
:1039900057EFF0900058EDF0900057E0FFEF120C59
:1039A0008639B10039BE0139CB0239D8030000395C
:1039B000E4900058E0FFEF2480FF123C9422900036
:1039C00058E0FFEF24C0FF123C9422900058E0FF23
:1039D000EF2494FF123C9422900058E0FFEF24D48F
:1039E000FF123C942290005EEFF01223859051204C
:1039F000E0FFEF4420FFEFF0905120E0FFEF54BFD5
:103A0000FFEFF0905120E0FFEF54F0FFEFF0905106
:103A100020C083C082E0FF90005EE0FEEE4410FE16
:103A2000EF4EFFD082D083EFF07F017E00123DC4C5
:103A3000905120E0FFEF54EFFFEFF022C0E0C0F024
:103A4000C083C082C085C084C086758600C093755F
:103A50009300C0D075D000C000C001C002C003C038
:103A600004C005C006C007123934D007D006D005FF
:103A7000D004D003D002D001D000D0D0D093D086D3
:103A8000D084D085D082D083D0F0D0E03290008234
:103A9000E4F0906000E0FFEF5480FF7E00EF648070
:103AA0004E7034906001E0FFEF120C863AB30100D3
:103AB000003AD77BFF7A4179FD900110120C5190AA
:103AC00041FDE493FF7E0090010EEEF0A3EFF012B3
:103AD00035B2900082EFF0900082E0FF224F018526
:103AE000FF33CCFF33D1FF33D5FF33DAFF33DF4968
:103AF0000194FF33E5FF33E7FF33EB4101C600419B
:103B000001C3004101C2004401A203D0900044015E
:103B10009D0000FA004101A1404401A77D00000082
:103B20004301BD0000004101C70000900057120C86
:103B30005190005A7401F0900057120C481209DBA2
:103B4000FF90005BEFF090005BE0FFEF602A9000D9
:103B50005BE0FF123BC6900057120C4890005AE001
:103B6000FFE92FF9E43AFA1209DBFF90005BEFF06E
:103B700090005AE004F080CE229000A6E4F0A3E486
:103B8000F07B007A007900C003C002C001900113ED
:103B9000120C48D082D083D0E06B7008E965827047
:103BA00003EA6583601F900113120C48E41209F4C4
:103BB000900113120C48E92401F9EA3400FAE47583
:103BC000F000120A9C2290005CEFF0122385900016
:103BD0005CE0FFEFC4540FFF90005DEFF090005DDC
:103BE000E0FF1239E590005CE0FFEF540FFF90001A
:103BF0005DEFF090005DE0FF1239E522122CD32238
:103C0000EC4D4E700D78FCEF24E950032840FD2266
:103C1000000078C5904800E0C403035403903C477B
:103C20009325E0240FF404FBEF28FF78FFEE38FE25
:103C3000ED38FDEC38FC50D7EF2BFFEE38FEED38B9
:103C4000FDEC38FC40F2220502030490005BEFF02B
:103C5000905120E0FFEF549FFFEFF0905120E0FFE4
:103C6000EF54F0FFEFF0905120C083C082E0FF904E
:103C7000005BE0FEEE4410FEEF4EFFD082D083EFFB
:103C8000F07F017E00123DC4905120E0FFEF54EF21
:103C9000FFEFF022900059EFF0122385900059E0D9
:103CA000FFEFC4540FFF90005AEFF090005AE0FF6E
:103CB000123C4B900059E0FFEF540FFF90005AEF79
:103CC000F090005AE0FF123C4B227B0C7A0179CF36
:103CD00012404E900000EFF0900000E0FFEF54071C
:103CE000FF90586EEFF0900000E0FFEFC4540FFF1C
:103CF000EF540FFF90586FEFF09058767444F02215
:103D0000900057120C519001B5E0FF900057120C33
:103D1000489001B5E0FEEE75F00BA424B1F582E405
:103D20003400F583E0FCA3E0FD90005EECF0A3ED31
:103D3000F01224B422758600EF4E6027EF60010E6A
:103D4000759300900005E0F595A3E0F585A3E0F5F7
:103D5000848B938A838982E0A30586F0A31586DF8E
:103D6000F6DEF4E4F593F59522ACEAADA08E838FF0
:103D700082E493F9601CA3E493F5EAA3E493F5A02D
:103D8000A3E49360F1FAA3E493F8A3E493F2DAF6E0
:103D9000D9E48DA08CEA229000A1E0FFEF120C86FE
:103DA0003DC3003DB0023DB4043DB80600003DC334
:103DB000123EE222122FDA227F031237B99000A5B9
:103DC0007403F022EEFA9001A1E0F88FF0A4FFAEA8
:103DD000F0E88AF0A42EFEE5F03400FDEF24C9FFE0
:103DE00078FFEE38FEED38FDE438FC5003023C006D
:103DF0002290011DE0FFEF601390011DE0FFEF44F2
:103E000080FF906008EFF090011DE4F09000A1E4C5
:103E1000F07F011237B99000A57403F0229000578B
:103E2000E4F09000A1E0FFEF70179001B6E0FFEF23
:103E3000600F9001B6E0FF900057EFF09001B6E4FC
:103E4000F0900057E0FF22900057EFF0900058EDFF
:103E5000F09001C6E0FFEF70091227099001C674C7
:103E600001F0900057E0FF900058E0FD122D9E22D7
:103E7000EFB40A07740D123E7B740A309811A899AA
:103E8000B8130CC2983098FDA899C298B811F630B2
:103E900099FDC299F59922758600EF4E601BEF607F
:103EA000010E8C838D828B958A858984E493A3058A
:103EB00086F0A31586DFF5DEF3E4F595229000A1E8
:103EC000E0FFEF120C863EE1003ED6023EDA043EF1
:103ED000DE0600003EE1123BFC2212400522123DAC
:103EE000F122900117E0FF7E009000A6EE8FF01205
:103EF0000A5B9000A1E4F07F011237B99000A5742D
:103F000003F0229000A17402F09000A07480F09061
:103F100000A5740FF0900117E4F09000A8E4F07F82
:103F200001229000A2E0FFEF25E025E024E8F582E1
:103F3000E43441F583120C5AAE02AF01229000A185
:103F40007406F09000A57406F09000A07480F090C4
:103F500000A8E4F07F0122EC4D6011ED60010C8BB4
:103F6000938A838982E4F0A3DDFCDCFA7593002256
:103F7000EF54016004D2AF8002C2AFEF5402FF9051
:103F800044F4E054FD4FF0229001B5E0FFEF75F0EE
:103F90000BA424AAF582E43400F583E0FF2290010B
:103FA000B4E0FFEF75F00BA424AAF582E43400F529
:103FB00083E0FF229001C2E0FFEF700912344690C7
:103FC00001C27401F0124042229044F4E0F844022D
:103FD000F0E85402FF10AF012274014FFF2290FF5E
:103FE000FF120CACEFF09046EA7401F09000011261
:103FF0000CAC22900005EFF0900005E0FF9000056A
:10400000EFF080FE229000A1E4F07F011237B9901A
:1040100000A57403F0228B938A838982E0FFA3E0DA
:10402000FE759300228B938A838982EDF0A3ECF0D6
:10403000759300229001B6E4F09001B5E0FF1233D1
:104040004D227F0C123C949001C37401F0228B939B
:104050008A838982E0759300FF228B938A83898209
:10406000EDF0759300229001ABE0FEA3E0FF2290FB
:1040700000A4E0FF229001B1E0FF229001B2E0FF36
:10408000229001B3E0FF2232120100020200000878
:10409000B40432F20100010480010902430002016C
:1040A00001C03209040000010202000205240010D0
:1040B0000104240202052406000105240100010771
:1040C00005810308000A09040100020A0000030731
:1040D00005820240000A0705030240000A040309A2
:1040E000042C0343007900700072006500730073B4
:1040F000002000530065006D00690063006F006ED2
:104100000064007500630074006F007200380343A0
:104110000044004300200043006F006D006D0075F7
:10412000006E00690063006100740069006F006E3A
:1041300000200049006E0074006500720066006196
:104140000063006500260343004400430020004450
:1041500000610074006100200049006E0074006579
:104160000072006600610063006500100355005393
:10417000004200550041005200540000020332008A
:1041800005010902A1010901A1000509190129037D
:1041900015002501950375018102950175058101C1
:1041A0000501093009311581257F750895028106C1
:1041B000C0C000000000810300080201008202006C
:1041C000400A0100030200400A020A01FF409A036C
:1041D000FF41B4000000000000000000FF41C901E1
:1041E000FF408801FF41CB01FF41DF12034D005327
:1041F000004600540031003000300001002800006B
:104200000000010400010000000000000000014364
:10421000595553420000003030303031000000006A
:1042200000000000000000000000000000C00000CE
:1042300004000000000000007F7F00000000000C70
:104240000045017E020052017C40011702EA02EEA5
:104250000A011902EA02EE0A01400333813640CC1A
:10426000700141039F01A640A7800142039F01A660
:1042700040A7800143039F01A640A780014704088F
:10428000080B040F40C20E014804AE40AF81EA4063
:10429000EE50014C02AC08AF44015101002A00511C
:1042A00000001000513000400051C000100100001B
:1042B000100001140008000140000A00014C000237
:1042C0000001500000203031323334353637383970
:0642D00041424344454653
:00000001FF
