:400000000080002011000000450700004507000080B500AF47F2BC63C4F2000344F2FA62C4F2000212681A6000F090FB10B5054C237833B9044810B10448AFF3008001218F
:40004000217010BDE081FF1F000000002077000008B5064B1BB106480649AFF300800648016811B1054A02B1904708BD0000000020770000E481FF1F0881FF1F000000009B
:4000800080B582B000AF04F0C9FB01F029FA0346002B59D048F24820C1F6FF7001F03AFA0346DAB248F27C23C1F6FF731A7048F27C23C1F6FF731B78002B45D04FF000035C
:4000C000FB7137E0F979FA7913464FEA43039A1848F24823C1F6FF739A5C48F22C23C1F6FF735A54F979FA7913464FEA43039B1803F1010248F24823C1F6FF739A5C48F285
:400100008023C1F6FF735A54F979FA7913464FEA43039B1803F1020248F24823C1F6FF739A5C48F28823C1F6FF735A54FB7903F10103FB71FB79042BC4D948F27B23C1F6B6
:40014000FF734FF000021A7007F10807BD4680BD80B500AF04F072FC48F21D23C1F6FF731B78002B47D048F27B23C1F6FF731B78002B00F0958048F27A23C1F6FF731B78E6
:40018000082B00F28D8048F27A23C1F6FF731B781A4648F22023C1F6FF739B5C184604F085F848F27A23C1F6FF731B781A4648F21423C1F6FF739B5C184604F043FA48F261
:4001C0007A23C1F6FF731B781A4648F29023C1F6FF739B5C184603F09DFF48F27A23C1F6FF731B7803F10103DAB248F27A23C1F6FF731A7054E048F27A23C1F6FF731B78E4
:4002000003F00103DBB2002B3DD148F22923C1F6FF731B78042B36D848F22923C1F6FF731B781A4648F22C23C1F6FF739B5C184604F03CF848F22923C1F6FF731B781A460F
:4002400048F28023C1F6FF739B5C184604F0FAF948F22923C1F6FF731B781A4648F28823C1F6FF739B5C184603F054FF48F22923C1F6FF731B7803F10103DAB248F22923A5
:40028000C1F6FF731A7048F27A23C1F6FF731B7803F10103DAB248F27A23C1F6FF731A7080BD00BFB0B500AF48F21D23C1F6FF731B78002B14BF00230123DBB21A4648F238
:4002C0001D23C1F6FF731A7048F27A23C1F6FF734FF000021A7048F22923C1F6FF734FF000021A7048F21D23C1F6FF731B78002B1AD048F23422C1F6FF7247F25873C0F20D
:40030000000314461D460FCD0FC42B6823704FF001004FF0000103F0FBFB48F23420C1F6FF7003F031FC19E048F23422C1F6FF7247F26C73C0F2000314461D460FCD0FC401
:400340002B6823704FF001004FF0000103F0E0FB48F23420C1F6FF7003F016FCB0BD00BF90B583B000AF48F27A23C1F6FF734FF000021A7048F22923C1F6FF734FF0000242
:400380001A7048F27B23C1F6FF734FF000021A7048F21D23C1F6FF734FF001021A7062B64FF000004FF0000100F0E2FC03F010FF04F0DAF804F05CF803F0E2FF04F008FA39
:4003C00004F016FB03F08EFB47F28070C0F2000003F0DAFB00BF00F013FF0346002BFAD040F28100C0F2000004F05EF940F25110C0F2000004F050FB40F2A520C0F20000FD
:4004000004F09EFB01F058F800E000BF48F27B23C1F6FF731B78002B40F0DD8048F22C23C1F6FF731A7848F22023C1F6FF731A7048F28023C1F6FF731A7848F21423C1F6CF
:40044000FF731A7048F28823C1F6FF731A7848F29023C1F6FF731A704FF00103FB71A1E0FB794FEA430303F1FF34FB7903F1FF3248F22C23C1F6FF739B5C1A46F97948F2A8
:400480002C23C1F6FF735B5CD318184604F076FD02460B46104619464FF000024FF00003C3F6E07304F0D0FD02460B461046194604F0DCFF0346DAB248F22023C1F6FF7327
:4004C0001A55FB794FEA4302F97948F22C23C1F6FF73595C48F22023C1F6FF739954FB794FEA430303F1FF34FB7903F1FF3248F28023C1F6FF739B5C1A46F97948F28023D0
:40050000C1F6FF735B5CD318184604F037FD02460B46104619464FF000024FF00003C3F6E07304F091FD02460B461046194604F09DFF0346DAB248F21423C1F6FF731A554F
:40054000FB794FEA4302F97948F28023C1F6FF73595C48F21423C1F6FF739954FB794FEA430303F1FF32FB7903F1FF3148F28823C1F6FF73595C48F29023C1F6FF7399545F
:40058000FB794FEA4302F97948F28823C1F6FF73595C48F29023C1F6FF739954FB7903F10103FB71FB79042B7FF65AAF48F27B23C1F6FF734FF001021A7048F27A23C1F6BD
:4005C000FF734FF000021A7048F22923C1F6FF734FF000021A7000F0C7FF0346BB71BB79002B3FF412AFBB7903F00103002B5FD000F0E4FF044601F02BF8034648F2342039
:40060000C1F6FF7047F29471C0F20001224604F085FF4FF000004FF0000103F079FA47F2A470C0F2000003F0AFFA4FF000004FF0000103F06DFA48F23420C1F6FF7003F0C3
:40064000A3FA00F0EDFF03461A4648F22013C1F6FF7353F8224000F0EFFF03461A4648F20C13C1F6FF7353F8223048F23420C1F6FF7047F2BC71C0F20001224604F04EFFF9
:400680004FF001004FF0000103F042FA47F2A470C0F2000003F078FA4FF001004FF0000103F036FA48F23420C1F6FF7003F06CFABB7903F00203002B3FF4A7AE00F0D4FFD5
:4006C0000346BB71BB7903F00103002B04D047F2CC72C0F2000203E047F2D072C0F20002BB7903F00203002B04D047F2CC73C0F2000303E047F2D073C0F2000348F2342024
:40070000C1F6FF7047F2D471C0F2000104F006FF4FF001004FF0000103F0FAF947F2A470C0F2000003F030FA4FF001004FF0000103F0EEF948F23420C1F6FF7003F024FAC8
:4007400063E600BF80B400AFFEE700BF80B586B000AF40F20103C0F200037B6148F20C33C0F200033B6140F20103C0F200037B6148F20C33C0F200033B613BE03B691B686C
:40078000FB603B695B68BB603B699B683B604FF000037B600FE0FB681A68BB681A60BB6803F10403BB60FB6803F10403FB607B6803F104037B607A683B689A42EBD13B6920
:4007C000DB683B604FF000037B600BE0BB684FF000021A60BB6803F10403BB607B6803F104037B607A683B689A42EFD13B6903F110033B617B69002B0CBF00230123DBB22D
:400800007A6902F1FF327A61002BB7D104F04EFEFFF7A6FDFEE700BF80B582B000AF4EF60C53CEF200034FF48062C0F2FA521A604EF61453CEF200034EF61452CEF20002B3
:40084000126842F400721A604FF000037B6019E07B68032B07D840F20003C0F200037A6853F8223003E040F24573C0F2000348F20002C1F6FF72796842F821307B6803F144
:4008800001037B607B682F2BE2D947F2BC63C4F200031B78DAB248F20413C1F6FF731A704EF60853CEF2000348F20002C1F6FF721A6000F077F948F20013C1F6FF734FF0D8
:4008C00000021A6007F10807BD4680BD80B582B000AF7860396078684FF000013A6804F014FE07F10807BD4680BD00BF80B584B000AFF860B9607A60F868B9687A6804F026
:40090000FBFD07F11007BD4680BD00BF80B584B000AFF860B9607A60F868B9687A6804F0EBFD07F11007BD4680BD00BF80B483B000AF0346FB71FEE780B487B000AF78605F
:4009400039604FF000033B614FF000037B612CE07B694FEA83037A68D3181B68BB60BB68FB73BB6823F0FF03BB6017E03B694FEA43033A68D3181B781A46BB68D3183A6999
:400980004FEA420239688A1852781A703B6903F101033B61FB7B03F1FF33FB73FB7B002BE4D17B6903F101037B617B691D2BCFD907F11C07BD4680BC704700BF80B582B0C8
:4009C00000AF4FF48143C4F200034FF027021A8044F28203C4F200034FF018021A704FF48643C4F200034FF006021A704FF48443C4F200034FF052021A7044F2A163C4F2C9
:400A0000000340F20F12C4F600121278D2B21A7044F22223C4F2000340F618021A8044F22023C4F2000341F251221A804FF00003FB704FF019037B6019E0FB784FEA43039E
:400A4000DAB244F22523C4F200031B78DBB203F00103DBB21343DBB203F00303FB704FF4F07003F08DFA7B6803F1FF337B607B68002B02D0FB78032BDFD17B68002B03D1B4
:400A80004FF00300FFF752FF44F20403C4F200034FF480721A8044F20403C4F200034FF007021A7044F20603C4F200034FF000021A7044F20803C4F200034FF048021A7050
:400AC00044F20403C4F200034FF000021A7044F20903C4F200034FF000021A7044F20103C4F200034FF002021A7044F2A233C4F2000344F2A232C4F200021278D2B242F0E9
:400B00000102D2B21A7007F10807BD4680BD00BF80B483B000AF40F2CF13C4F600131B78FB7145F66E03C4F20003FA7902F00702D2B21A7045F66F03C4F20003FA794FEAB5
:400B40001212D2B21A7045F69023C4F200034FF020021A7045F69823C4F200034FF010021A7045F64233C4F2000340F201121A8045F64633C4F200034FF481721A8045F667
:400B80005833C4F200034FF020021A7045F67603C4F200034FF044021A7007F10C07BD4680BC704780B582B000AF72B64FF49043C4F200034FF000021A70FFF7FFFE44F288
:400BC000E863C4F2000344F2E862C4F200021278D2B242F00402D2B21A704FF00003FB7119E0FA7913464FEA43039B184FEA430347F2E472C0F200029B183B603B681A688B
:400C00003B689B889BB210461946FFF75FFEFB7903F10103FB71FB79072BE2D947F61400C0F2000047F68C01C0F20001FFF784FE45F20303C4F2010345F20302C4F201027C
:400C40001278D2B242F00202D2B21A7045F21303C4F2010345F21302C4F201021278D2B242F00202D2B21A7044F2A033C4F2000344F2A032C4F200021278D2B242F04002C0
:400C8000D2B21A7044F2C233C4F2000344F2C232C4F200021278D2B242F01002D2B21A704FF4A240C4F2000047F66C71C0F200014FF00A02FFF72AFE45F2F010C4F2000002
:400CC00047F67871C0F200014FF00A02FFF71EFE45F21210C4F2000047F68471C0F200014FF00802FFF712FE45F22210C4F2000047F68C71C0F200014FF00802FFF706FE2C
:400D000045F23210C4F2000047F69471C0F200014FF00802FFF7FAFD45F24010C4F2000047F69C71C0F200014FF00A02FFF7EEFD44F22233C4F2000344F22232C4F200026D
:400D40001278D2B242F00802D2B21A70FFF7E0FE44F2B030C4F2000044F2A031C4F200014FF00E02FFF7C2FD07F10807BD4680BD80B582B000AF02460B46FA71BB7148F2F2
:400D8000FC13C1F6FF731B78002B08D100F012F848F2FC13C1F6FF734FF001021A70FA79BB791046194600F021F907F10807BD4680BD00BF80B582B000AF03F003F9034672
:400DC000FB7144F2A533C4F2000344F2A532C4F200021278D2B242F00102D2B21A7044F2B533C4F2000344F2B532C4F200021278D2B242F00102D2B21A7046F29D03C4F21F
:400E000000034FF001021A7046F20903C4F200034FF002021A7046F21003C4F2000346F21002C4F200021278D2B202F07F02D2B21A704FF0000003F003F944F29433C4F2A3
:400E4000000344F29432C4F200021278D2B222F00602D2B21A7046F21203C4F2000346F21202C4F200021278D2B222F02002D2B21A7044F29433C4F2000344F29432C4F2C3
:400E800000021278D2B242F00102D2B21A704FF0010003F0D5F84FF0280003F0D1F845F2F813C4F2000345F2F812C4F200021278D2B202F07F02D2B21A7045F2F813C4F241
:400EC000000345F2F812C4F200021278D2B222F04002D2B21A7044F29433C4F2000344F29432C4F200021278D2B242F00202D2B21A704FF0020003F0A3F844F29433C4F248
:400F0000000344F29432C4F200021278D2B242F00402D2B21A7046F28403C4F200034FF000021A7046F28503C4F200034FF000021A70FB79184603F049F84FF0170042F28F
:400F40000101C0F2000103F08FF84FF017004FF0070103F0B9F84FF0150041F6F571C0F2000103F081F84FF015004FF0070103F0ABF84FF0180041F28161C0F2000103F0AE
:400F800073F84FF018004FF0070103F09DF84FF0030041F69161C0F2000103F065F84FF003004FF0070103F08FF84FF0040041F60571C0F2000103F057F84FF004004FF0C8
:400FC000070103F081F84FF0050041F67971C0F2000103F049F84FF005004FF0070103F073F807F10807BD4680BD00BF80B584B000AF02460B46FA71BB714FF00003FB734A
:401000000BE0FA7B48F24033C1F6FF734FF001019954FB7B03F10103FB73FB7B012BF0D94FF46143CEF200034FF400021A604FF46143CEF200034FF080721A604FF4614360
:40104000CEF200034FF008021A604FF46143CEF200034FF010021A604FF46143CEF200034FF020021A6048F23833C1F6FF734FF000021A70BB79002B02D0012B08D00FE033
:4010800046F20903C4F200034FF002021A700FE046F20903C4F200034FF003021A7007E046F20903C4F200034FF002021A7000BF48F23933C1F6FF73FA791A7048F2AB2368
:4010C000C1F6FF734FF000021A7048F2AC23C1F6FF734FF000021A7048F2AA23C1F6FF734FF000021A7048F23E33C1F6FF734FF000021A7048F2AD23C1F6FF734FF00002F1
:401100001A7048F2A923C1F6FF734FF000021A7046F22803C4F200034FF003021A7046F20803C4F200034FF080021A704FF0010002F026FF46F21203C4F200034FF0040258
:401140001A7007F11007BD4680BD00BF80B483B000AF4FF00003FB710BE0FA7948F24033C1F6FF734FF001019954FB7903F10103FB71FB79012BF0D948F23833C1F6FF73A2
:401180004FF000021A7048F2AB23C1F6FF734FF000021A7048F2AC23C1F6FF734FF000021A7048F2AA23C1F6FF734FF000021A7048F23E33C1F6FF734FF000021A7048F297
:4011C000AD23C1F6FF734FF000021A7048F2A923C1F6FF734FF000021A7046F22803C4F200034FF003021A7046F20803C4F200034FF080021A7007F10C07BD4680BC7047FF
:4012000080B400AF48F2AB23C1F6FF731B78DBB21846BD4680BC704780B485B000AF0346FB714FF00003FB81FB79002B27D0FB79082B24D8FB7903F1FF33DBB24FEA0313EC
:401240007B737A7B46F20C03C4F20003D3181B78DBB203F00F03FB81FB894FEA03239AB2797B46F20D03C4F20003CB181B78DBB213439BB2FB81FB89A3F10203FB81FB899C
:40128000184607F11407BD4680BC704780B586B000AF396013460246FA71BB80FB79002B37D0FB79082B34D83B68002B31D0FB7903F1FF33DBB24FEA03137B757A7D46F210
:4012C0008803C4F20003D3183B61FB791846FFF7A3FF0346FB81BA88FB899A4201D9FB89BB804FF00003FB820AE0FB8A3A68D3183A691278D2B21A70FB8A03F10103FB82C9
:40130000FA8ABB889A42F0D3FB79184600F00AF802E04FF00003BB80BB88184607F11807BD4680BD80B485B000AF0346FB71FB79002B2ED0FB79082B2BD8FB7903F1FF337E
:40134000DBB24FEA0313FB73F97948F2C822C1F6FF720B464FEA43035B184FEA8303D3184FF000025A70FA7B46F20E03C4F20003D3181846F97948F2C822C1F6FF720B469E
:401380004FEA43035B184FEA8303D3185B79DBB2037007F11407BD4680BC704780B582B000AF4FF00003FB714FF4C043C4F200031B78DBB2DBB25BB2002B1EDA46F20103D8
:4013C000C4F200031B78DBB2212B15D148F2B823C1F6FF734FF007021A8048F2B823C1F6FF7348F2A022C1F6FF725A6000F030FB0346FB7100BF58E057E04FF4C043C4F2AC
:4014000000031B78DBB2DBB25BB2002B4DDB46F20103C4F200031B78DBB2202B02D0222B23D041E048F2B823C1F6FF734FF007021A8048F2B823C1F6FF7348F2A022C1F6F8
:40144000FF725A6048F2A723C1F6FF731B78DBB243F00103DAB248F2A723C1F6FF731A7000F09AFB0346FB711FE046F20203C4F200031B78DBB21A4648F29E23C1F6FF73A7
:401480001A8048F2A723C1F6FF731B78DBB243F00203DAB248F2A723C1F6FF731A7000F051FC0346FB7100E000BFFB79184607F10807BD4680BD00BF80B500AF48F2A72379
:4014C000C1F6FF734FF000021A7048F29C23C1F6FF731B78DBB21846FFF724FF80BD00BF80B400AF48F29C23C1F6FF731B78DBB2194648F2C822C1F6FF720B464FEA4303A3
:401500005B184FEA8303D3185B78DBB21846BD4680BC704780B582B000AF786048F29C23C1F6FF731B78D8B248F29C23C1F6FF731B78DBB2194648F2C822C1F6FF720B466F
:401540004FEA43035B184FEA8303D31803F108031B889BB279681A46FFF798FE0346184607F10807BD4680BD80B483B000AF4FF00003FB7148F23833C1F6FF731B78DBB273
:40158000002B14D148F2A723C1F6FF731B78DBB2002B0CD048F2A723C1F6FF731B78FB7148F2A723C1F6FF734FF000021A70FB79184607F10C07BD4680BC704780B483B069
:4015C00000AF48F2A023C1F6FF73DB78DBB27B607B684FEA032248F2A023C1F6FF739B78DBB213437B607B684FEA032248F2A023C1F6FF735B78DBB213437B607B684FEA0F
:40160000032248F2A023C1F6FF731B78DBB213437B607B68184607F10C07BD4680BC704780B400AF48F2A023C1F6FF731B79DBB21846BD4680BC704780B400AF48F2A0236E
:40164000C1F6FF735B79DBB21846BD4680BC704780B400AF48F2A023C1F6FF739B79DBB21846BD4680BC704780B400AF48F29E23C1F6FF731B889BB21846BD4680BC704743
:4016800080B582B000AF46F22803C4F200031B78BB71BB7903F01003002B00F08C804FF00103FB71BB795BB2002B18DABB7903F00F03012B03D04FF00003FB7122E000F0F3
:4016C0007FF848F2A823C1F6FF731B78DBB2DBB25BB2002B16DA4FF00003FB7112E0BB7903F04003002B02D000F0BEF80AE0BB7903F02003002B02D000F0DEF802E04FF0AB
:401700000003FB71FB79002B55D046F22803C4F200031B78BB71BB795BB2002B4BDB48F2AE23C1F6FF731B78DAB248F2C423C1F6FF731B78DBB21343BB7146F22903C4F2B0
:401740000003BA791A7046F22903C4F200031B78DBB2BA799A422ED148F2A823C1F6FF731B78FB7146F22803C4F200031B78DBB223F07F03BB71BB79002B13D146F228038E
:40178000C4F2000348F2A822C1F6FF721278D2B21A7046F22803C4F200031B78DBB203F00F03FB7148F2A823C1F6FF731B78DBB2FA799A42D0D107F10807BD4680BD00BFBB
:4017C00080B582B000AF46F22803C4F200031B78FB7146F22803C4F20003FA791A7046F22803C4F200031B78FB71FB795BB2002B06DA48F2A823C1F6FF73FA791A702EE0BF
:401800004FF0020000F0F4FA4FF4C043C4F200031B78DBB203F06003202B08D0402B0BD0002B0ED100F070FE0346FB710DE003F0DBF90346FB7108E002F0C6F80346FB71D8
:4018400003E04FF00003FB7100BFFB79002B06D148F2A823C1F6FF734FF003021A7007F10807BD4680BD00BF80B500AF48F23833C1F6FF731B78DBB2062B1AD801A252F8BE
:4018800023F000BFB3180000B3180000A1180000B3180000A7180000B3180000AD18000000F04AF906E000F037FA03E000F06EFA00E000BF80BD00BF80B500AF48F2383354
:4018C000C1F6FF731B78DBB2062B23D801A252F823F000BF1519000015190000F118000015190000F718000015190000FD18000000F028F90FE000F091F90CE04FF0030027
:4019000000F076FA48F2A823C1F6FF734FF003021A7000E000BF80BD80B483B000AF4FF00003FB7148F2A923C1F6FF731B78DBB21A4648F23633C1F6FF731B889BB2D31855
:401940009AB248F23633C1F6FF731A802BE0FB7903F1804303F5C0431A4648F2B823C1F6FF735B681B78DBB2137048F2B823C1F6FF735B6803F1010248F2B823C1F6FF734A
:401980005A60FB7903F10103FB7148F2B823C1F6FF731B889BB203F1FF339AB248F2B823C1F6FF731A8048F2B823C1F6FF731B889BB2002B02D0FB79072BC8D948F2A923A5
:4019C000C1F6FF731B78DBB2082B02D0FB79002B1ED048F2AE23C1F6FF731B78DBB283F07F036FEA0303DAB248F2AE23C1F6FF731A7048F2A823C1F6FF734FF00F021A7012
:401A000048F23833C1F6FF734FF002021A700DE048F2A823C1F6FF734FF002021A7048F23833C1F6FF734FF002021A7048F2A923C1F6FF73FA791A7048F2C423C1F6FF7312
:401A4000FA791A7007F10C07BD4680BC704700BF80B582B000AF48F2B823C1F6FF731B889BB2002B02D100F03BF832E048F23833C1F6FF734FF002021A7048F2AE23C1F6D5
:401A8000FF734FF000021A7000F0DEF946F20703C4F200031B78DBB24FEA03239AB246F20603C4F200031B78DBB213439BB2FB8048F2B823C1F6FF731B889BB2FA889A4298
:401AC00005D248F2B823C1F6FF73FA881A80FFF723FF4FF00103184607F10807BD4680BD80B400AF48F23833C1F6FF734FF002021A7048F2AE23C1F6FF734FF080021A70B8
:401B000048F2A823C1F6FF734FF00F021A7048F2A923C1F6FF734FF000021A7048F2C423C1F6FF734FF000021A704FF001031846BD4680BC704700BF80B500AFFFF7ECFE74
:401B400080BD00BF80B500AF48F2A923C1F6FF731B78DBB21A4648F23633C1F6FF731B889BB2D3189AB248F23633C1F6FF731A8048F23833C1F6FF734FF000021A704FF0A5
:401B8000010000F035F948F2A823C1F6FF734FF003021A7080BD00BF80B582B000AF48F23833C1F6FF734FF004021A7048F2AE23C1F6FF734FF080021A7000F045F946F276
:401BC0000703C4F200031B78DBB24FEA03239AB246F20603C4F200031B78DBB213439BB2FB8048F2B823C1F6FF731B889BB2FA889A4205D248F2B823C1F6FF73FA881A8062
:401C000048F2A823C1F6FF734FF00B021A704FF00103184607F10807BD4680BD80B483B000AF4FF00003BB7146F22903C4F200031B78DBB203F00F03DBB2A3F10203FB7160
:401C4000FB799AB248F23633C1F6FF731B889BB2D3189AB248F23633C1F6FF731A802EE048F2B823C1F6FF735A68BB7903F1804303F5C0431B78DBB2137048F2B823C1F6E8
:401C8000FF735B6803F1010248F2B823C1F6FF735A60BB7903F10103BB71FB7903F1FF33FB7148F2B823C1F6FF731B889BB203F1FF339AB248F2B823C1F6FF731A8048F2F0
:401CC000B823C1F6FF731B889BB2002B02D0FB79002BC5D148F2C423C1F6FF73FA791A7048F2AE23C1F6FF731B78DBB283F07F036FEA0303DAB248F2AE23C1F6FF731A7085
:401D000048F2A823C1F6FF734FF00B021A7007F10C07BD4680BC704780B500AF48F23833C1F6FF734FF000021A704FF0010000F05FF848F2A823C1F6FF734FF003021A709E
:401D400080BD00BF80B400AF48F23833C1F6FF734FF006021A7048F2A823C1F6FF734FF006021A7048F2AE23C1F6FF734FF080021A7048F2C423C1F6FF734FF000021A7052
:401D80004FF001031846BD4680BC704780B500AF48F23E33C1F6FF731B78DBB2002B14D046F20803C4F2000348F23E32C1F6FF721278D2B262F07F02D2B21A7048F23E333D
:401DC000C1F6FF734FF000021A7048F23833C1F6FF734FF000021A704FF0010000F008F848F2A823C1F6FF734FF003021A7080BD80B483B000AF0346FB7148F2B823C1F656
:401E0000FF739B68002B19D048F2B823C1F6FF739B68FA791A7048F2B823C1F6FF739A6848F23633C1F6FF731B889BB2538048F2B823C1F6FF734FF000029A6007F10C0788
:401E4000BD4680BC704700BF80B400AF48F23633C1F6FF734FF000021A8048F2B823C1F6FF739B68002B0FD048F2B823C1F6FF739B684FF000021A7048F2B823C1F6FF738E
:401E80009B684FF000025A80BD4680BC704700BF80B400AF46F20E03C4F200031B7848F2C823C1F6FF731B7BDBB203F00303012B0FD048F2C823C1F6FF73DB7BDBB283F0BE
:401EC0007F036FEA0303DAB248F2C823C1F6FF73DA7348F2C823C1F6FF734FF001025A7346F20B03C4F2000346F20B02C4F200021278D2B222F00102D2B21A70BD4680BC11
:401F0000704700BF80B400AF46F21E03C4F200031B7848F2C823C1F6FF731B7EDBB203F00303012B0FD048F2C823C1F6FF73DB7EDBB283F07F036FEA0303DAB248F2C823F2
:401F4000C1F6FF73DA7648F2C823C1F6FF734FF001025A7646F20B03C4F2000346F20B02C4F200021278D2B222F00202D2B21A70BD4680BC704700BF80B400AF46F22E0359
:401F8000C4F200031B7848F2C823C1F6FF7393F82430DBB203F00303012B11D048F2C823C1F6FF7393F82730DBB283F07F036FEA0303DAB248F2C823C1F6FF7383F8272068
:401FC00048F2C823C1F6FF734FF0010283F8252046F20B03C4F2000346F20B02C4F200021278D2B222F00402D2B21A70BD4680BC704700BF80B400AFBD4680BC704700BF14
:4020000080B500AFFFF7A2F880BD00BF80B582B000AF4FF00003FB7146F20403C4F200031B78BB714FF4C043C4F200031B78DBB2DBB25BB2002B80F29C8046F20103C4F251
:4020400000031B78DBB203F1FF33052B00F2248101A252F823F000BFD3200000F32000003B21000099220000992200007120000046F20303C4F200031B78DBB2212B0FD1E5
:4020800000F022F948F2B823C1F6FF731B889BB2002B00F00381FFF7DBFC0346FB71FDE046F20303C4F200031B78DBB2222B40F0F58000F053F948F2B823C1F6FF731B88C3
:4020C0009BB2002B00F0EA80FFF7C2FC0346FB71E4E000F099F948F2B823C1F6FF731B889BB2002B00F0DC80FFF7B2FC0346FB71D6E0BB79012B00F2D58046F20203C4F211
:4021000000031B78DBB2002B40F0CC8048F2B823C1F6FF734FF001021A80BA7948F24833C1F6FF73D21848F2B823C1F6FF735A60FFF78EFC0346FB71B4E0BB79012B00F2AD
:40214000B38048F2B823C1F6FF734FF001021A80BA7948F24033C1F6FF73D21848F2B823C1F6FF735A60FFF773FC0346FB7100BF9AE04FF4C043C4F200031B78DBB2DBB228
:402180005BB2002BC0F2998046F20103C4F200031B78DBB2092B07D0092BC0F287800A2B11D00B2B5AD075E000F02EF948F2B823C1F6FF731B889BB2002B79D0FFF7ECFCAD
:4021C0000346FB7174E0BB79012B73D846F20203C4F200031B78DBB2002B6BD1BA7946F20303C4F200031B78D9B248F24833C1F6FF739954BA7948F24833C1F6FF739B5C93
:40220000DAB2B97948F24433C1F6FF735B5CDBB29A4208D2BA7948F24433C1F6FF734FF00001995415E0BA7948F24433C1F6FF739B5CDBB2012B0CD9BA79B97948F2483321
:40224000C1F6FF735B5CD9B248F24433C1F6FF739954FFF777FD0346FB712BE0BB79012B2AD846F20203C4F200031B78DBB2012B22D8BA7946F20203C4F200031B78D9B21D
:4022800048F24033C1F6FF739954FFF75BFD0346FB7111E000BF09E000BF0EE000BF0CE000BF0AE000BF08E000BF06E000BF04E000BF02E000BF00E000BFFB79184607F106
:4022C0000807BD4680BD00BF80B584B000AF48F2AB23C1F6FF731B78DBB203F1FF33DBB2184601F055F9F86046F20403C4F200031B78FB72FB7A03F102034FEAC303FA68F8
:40230000D318FB60FB685B68FB60FA7A48F2B423C1F6FF739B5CDBB24FEAC303FA68D318FB60FB685B68FB60FB6803F12003FB60FB685B687B607B681B78DBB21A4648F209
:40234000B823C1F6FF731A8048F2B823C1F6FF737A685A6007F11007BD4680BD80B584B000AF48F2AB23C1F6FF731B78DBB203F1FF33DBB2184601F00BF9F86046F2040390
:40238000C4F200031B78FB72FB7A03F102034FEAC303FA68D318FB60FB685B68FB60FA7A48F2B423C1F6FF739B5CDBB24FEAC303FA68D318FB60FB685B68FB60FB6803F11D
:4023C0001803FB60FB685B687B607B6803F101031B78DBB24FEA03239AB27B681B78DBB213439BB29AB248F2B823C1F6FF731A807B6803F1020248F2B823C1F6FF735A6023
:4024000007F11007BD4680BD80B584B000AF48F2B823C1F6FF734FF000021A8048F2AB23C1F6FF731B78DBB203F1FF33DBB2184601F0AEF8F86046F20303C4F200031B7841
:40244000FB7246F20403C4F200031B78BB72BB7A03F102034FEAC303FA68D318FB60FB685B68FB60BB7A012B49D8BA7A48F2B423C1F6FF739B5CDBB24FEAC303FA68D31821
:40248000FB60FB685B68FB60FB7A002B37D0FB7A032B34D8FB7A03F1FF334FEAC303FA68D318FB6046F20203C4F200031B78FB72FB681B78FA7A9A4221D8FB685B687B6072
:4024C000FA7A13464FEA43039B184FEA83037A68D3187B607B685A6848F2B823C1F6FF735A607B681A8848F2B823C1F6FF731A807B689A6848F2B823C1F6FF739A6007F167
:402500001007BD4680BD00BF80B586B000AF4FF00003FB754FF000033B6148F2B823C1F6FF734FF000021A804FF4C043C4F200031B78DBB2DBB25BB2002B80F2958146F21E
:402540000103C4F200031B78DBB20A2B00F2D88201A252F823F000BF2D270000012B0000012B0000012B0000012B0000012B000085250000012B000003280000012B0000E1
:402580002D28000046F20303C4F200031B78DBB2012B15D101F01EF8B860BB685A6848F2B823C1F6FF735A6048F2B823C1F6FF734FF012021A80FFF74BFA0346FB75A1E2FF
:4025C00046F20303C4F200031B78DBB2022B32D146F20203C4F200031B78DBB2184600F0D7FFB860BB685A6848F2B823C1F6FF735A6048F2B823C1F6FF735B6803F103036A
:402600001B78DBB24FEA03239AB248F2B823C1F6FF735B6803F102031B78DBB213439BB29AB248F2B823C1F6FF731A80FFF710FA0346FB7566E246F20303C4F200031B7863
:40264000DBB2032B6DD14FF00003FB7348F21403C0F200033B610AE03B691B78FB71FB793A69D3183B61FB7B03F10103FB7346F20203C4F200031B78DBB2FA7B9A4204D2CB
:402680003B691B78DBB2002BE6D146F20203C4F200031B78DBB2EE2B04D148F24C13C0F200033B6146F20203C4F200031B78DBB2002B1CD046F20203C4F200031B78DAB244
:4026C00047F6BC73C0F200031B7C9A420FD148F2B403C0F200033B6148F24C30C1F6FF7000F01CFA48F24C33C1F6FF733B613B691B78DBB2002B00F005823B691B78DBB29A
:402700001A4648F2B823C1F6FF731A8048F2B823C1F6FF733A695A60FFF79AF90346FB75F0E102F061FA0346FB75EBE14FF4C043C4F200031B78DBB203F00303002B37D097
:40274000022B5CD148F2B823C1F6FF734FF002021A8046F20403C4F200031B78DBB203F07F0148F2C822C1F6FF720B464FEA43035B184FEA8303D3189B78DAB248F2002324
:40278000C1F6FF731A7048F20023C1F6FF734FF000025A7048F2B823C1F6FF7348F20022C1F6FF725A60FFF753F90346FB7527E048F2B823C1F6FF734FF002021A8048F202
:4027C000AD23C1F6FF731B78DAB248F20023C1F6FF731A7048F20023C1F6FF734FF000025A7048F2B823C1F6FF7348F20022C1F6FF725A60FFF72CF90346FB7500E000BF31
:4028000085E148F2B823C1F6FF734FF001021A8048F2B823C1F6FF7348F2AB22C1F6FF725A60FFF715F90346FB7570E148F2B823C1F6FF734FF001021A8046F20403C4F2D4
:4028400000031B78DBB21A4648F2B423C1F6FF73D21848F2B823C1F6FF735A60FFF7F8F80346FB7500BF52E146F20103C4F200031B78DBB203F1FF330A2B00F2458101A25D
:4028800052F823F061290000092B0000312A0000092B0000B1280000092B0000092B0000092B0000D1280000092B00000729000046F20203C4F200031B78DAB248F23E33DC
:4028C000C1F6FF731A70FFF73DFA0346FB751EE146F20203C4F200031B78DAB248F2AB23C1F6FF731A7048F2AA23C1F6FF734FF001021A704FF0010000F066FAFFF722FAD2
:402900000346FB7503E101F017F80346002B00F0FD8046F20403C4F200031B78BB7148F2AC23C1F6FF73BA791A7048F2AA23C1F6FF734FF001021A7000F080FCBA79B979A6
:4029400048F2B423C1F6FF735B5CD9B248F23433C1F6FF739954FFF7F5F90346FB75D5E04FF4C043C4F200031B78DBB203F00303012B2BD0012B0ED3022B52D146F20203F9
:40298000C4F200031B78DBB2002B4BD100F0F2FE0346FB7546E046F20203C4F200031B78DBB2012B40D148F2AD23C1F6FF731B78DBB223F00203DAB248F2AD23C1F6FF73BB
:4029C0001A70FFF7BFF90346FB752DE046F20403C4F200031B78DBB2012B27D846F20403C4F200031B78DBB21A46194648F23C33C1F6FF735B5CD9B246F20203C4F20003B5
:402A00001B78DBB26FEA0303DBB20B40D9B248F23C33C1F6FF739954FFF794F90346FB7504E004E000BF02E000BF00E000BF6EE04FF4C043C4F200031B78DBB203F003038C
:402A4000012B2BD0012B0ED3022B52D146F20203C4F200031B78DBB2002B4BD100F0F2FD0346FB7546E046F20203C4F200031B78DBB2012B40D148F2AD23C1F6FF731B789E
:402A8000DBB243F00203DAB248F2AD23C1F6FF731A70FFF757F90346FB752DE046F20403C4F200031B78DBB2012B27D846F20403C4F200031B78DBB21A46194648F23C3339
:402AC000C1F6FF735B5CD9B246F20203C4F200031B78DBB26FEA0303DBB20B40D9B248F23C33C1F6FF739954FFF72CF90346FB7504E004E000BF02E000BF00E000BF06E053
:402B000000BF04E000BF02E000BF00E000BFFB7D184607F11807BD4680BD00BF90B488B000AF78604FF00003BB7747F6A873C0F2000307F10C040FCB84E80F007B68002B18
:402B40003AD07B684FF022021A707B6803F101034FF003021A704FF00203FB7729E0BB7F03F1924303F580731B787B77BB7F03F10103BB77FB7F7A68D3187A7F4FEA12129F
:402B8000D2B207F120018A1812F8142C1A70FB7F03F102037A68D3187A7F02F00F0207F120018A1812F8142C1A70FB7F03F10403FB77FB7F212BD2D907F12007BD4690BC71
:402BC000704700BF80B483B000AF4FF00103FB714FF00003BB71E5E0BB7903F1804303F5C1434FF00C021A70F97948F2C822C1F6FF720B464FEA43035B184FEA8303D318FE
:402C00005B79DBB2002B25D0F97948F2C822C1F6FF720B464FEA43035B184FEA8303D3181B79DBB2DBB25BB2002B09DABA7946F20E03C4F20003D3184FF00C021A7012E0B6
:402C4000BA7946F20E03C4F20003D3184FF008021A7008E0BA7946F20E03C4F20003D3184FF080021A70BA7946F20C03C4F20003D3181846F97948F2C822C1F6FF720B4683
:402C80004FEA43035B184FEA8303D31803F108031B889BB24FEA13239BB2DBB20370BA7946F20D03C4F20003D3181846F97948F2C822C1F6FF720B464FEA43035B184FEA16
:402CC0008303D31803F108031B889BB2DBB20370BA7946F28603C4F20003D3181846F97948F2C822C1F6FF720B464FEA43035B184FEA8303D318DB889BB2DBB20370BA79F0
:402D000046F28703C4F20003D3181846F97948F2C822C1F6FF720B464FEA43035B184FEA8303D318DB889BB24FEA13239BB2DBB20370BA7946F28403C4F20003D3181846C4
:402D4000F97948F2C822C1F6FF720B464FEA43035B184FEA8303D318DB889BB2DBB20370BA7946F28503C4F20003D3181846F97948F2C822C1F6FF720B464FEA43035B1802
:402D80004FEA8303D318DB889BB24FEA13239BB2DBB20370FB7903F10103FB71BB7903F11003BB71BB795BB2002BBFF615AF46F20A03C4F200034FF0FF021A7007F10C0706
:402DC000BD4680BC704700BF80B588B000AF0346FB714FF000037B834FF00003FB7770E0F97F48F2C822C1F6FF720B464FEA43035B184FEA8303D3184FF000021A70F97F15
:402E000048F2C822C1F6FF720B464FEA43035B184FEA8303D3184FF000029A70F97F48F2C822C1F6FF720B464FEA43035B184FEA8303D3184FF000025A70F97F48F2C822B6
:402E4000C1F6FF720B464FEA43035B184FEA8303D3184FF00002DA70F97F48F2C822C1F6FF720B464FEA43035B184FEA8303D3184FF000025A71F97F48F2C822C1F6FF7231
:402E80000B464FEA43035B184FEA8303D31803F108034FF000021A80F97F48F2C822C1F6FF720B464FEA43035B184FEA8303D31803F108034FF000029A70FB7F03F10103DE
:402EC000FB77FB7F082B8BD9FB79002B1AD04FF000037B7713E07A7F48F2B423C1F6FF734FF0000199547A7F48F23433C1F6FF734FF0000199547B7F03F101037B777B7F71
:402F0000012BE8D948F2AB23C1F6FF731B78DBB2002B00F08E8148F2AB23C1F6FF731B78DBB203F1FF33DBB2184600F031FB38613B695B68FB60FB6803F107031B7803F069
:402F40004003002B0ED048F2AD23C1F6FF731B78DBB243F00103DAB248F2AD23C1F6FF731A700DE048F2AD23C1F6FF731B78DBB223F00103DAB248F2AD23C1F6FF731A7092
:402F80003B6903F108033B613B691B78FB774FF001037B77EBE03B695B687B614FF00003BB77DBE07A7F7B699B7803F07F039A4240F0CC80797F48F2C822C1F6FF720B4665
:402FC0004FEA43035B184FEA8303D31803F108031B889AB27B699B889A4211D2797F7B69988848F2C822C1F6FF720B464FEA43035B184FEA8303D31803F1080302461A806B
:403000007B691B781A4648F2B423C1F6FF739B5CDAB27B695B789A4240F098807B69DB7803F00303FB727B699B78DBB25BB2002B36DA797F48F2C822C1F6FF720B464FEAEA
:4030400043035B184FEA8303D3184FF001025A70787FFB7A012B02D14FF0070101E04FF00D0148F2C822C1F6FF7203464FEA43031B184FEA8303D3180A465A717B699B79FD
:403080000A2B03D07B699B79022B3FD1FB7A032B3CD048F29D23C1F6FF737A7F1A7035E0797F48F2C822C1F6FF720B464FEA43035B184FEA8303D3184FF000025A70787F36
:4030C000FB7A012B02D14FF0050101E04FF0090148F2C822C1F6FF7203464FEA43031B184FEA8303D3180A465A717B699B790A2B03D07B699B79022B08D1FB7A032B05D06B
:4031000048F29C23C1F6FF737A7F1A70797F7B69987848F2C822C1F6FF720B464FEA43035B184FEA8303D31802461A71797F7B69D87848F2C822C1F6FF720B464FEA4303AA
:403140005B184FEA8303D31802461A707B6903F108037B61BB7F03F10103BB77BA7FFB7F9A42FFF41FAF7B7F03F101037B777B7F082B7FF610AF3B695B687B614FF0000323
:403180007B771CE07B699B7803F07F017B69187848F2C822C1F6FF720B464FEA43035B184FEA8303D31803F1080302469A707B6903F108037B617B7F03F101037B777A7F1D
:4031C000FB7F9A42DED300F019FA024648F2B023C1F6FF731A604FF00103FB7724E0F97F48F2C822C1F6FF720B464FEA43035B184FEA8303D3187A8BDA80F97F48F2C82268
:40320000C1F6FF720B464FEA43035B184FEA8303D31803F108031B889AB27B8BD3187B83FB7F03F10103FB77FB7F082BD7D9FFF7C9FC07F12007BD4680BD00BF80B584B019
:4032400000AF48F2AB23C1F6FF731B78DBB2002B00F0998148F2AB23C1F6FF731B78DBB203F1FF33DBB2184600F092F978607B6803F108037B607B681B78FB707B685B6820
:40328000BB604FF00003FB7378E1BB681B781A4648F2B423C1F6FF739B5CDAB2BB681B78194648F23433C1F6FF735B5CDBB29A4200F05C81BB681B781A4648F2B423C1F66D
:4032C000FF739B5CDAB2BB685B789A4240F04E81BB681A7846F20403C4F200031B78DBB29A4240F04381BB689B7803F07F03BB70BB7803F1FF33DBB24FEA03137B70BB6852
:40330000DB7803F003033B70BB689B78DBB25BB2002B25DAB97848F2C822C1F6FF720B464FEA43035B184FEA8303D3184FF001025A70B8783B78012B02D14FF0070101E01C
:403340004FF00D0148F2C822C1F6FF7203464FEA43031B184FEA8303D3180A465A7124E0B97848F2C822C1F6FF720B464FEA43035B184FEA8303D3184FF000025A70B8784B
:403380003B78012B02D14FF0050101E04FF0090148F2C822C1F6FF7203464FEA43031B184FEA8303D3180A465A717A7846F20E03C4F20003D3184FF001021A70B978BB68E1
:4033C000988848F2C822C1F6FF720B464FEA43035B184FEA8303D31803F1080302461A80B978BB68987848F2C822C1F6FF720B464FEA43035B184FEA8303D31802461A7123
:40340000B978BB68D87848F2C822C1F6FF720B464FEA43035B184FEA8303D31802461A70B97848F2C822C1F6FF720B464FEA43035B184FEA8303D3184FF00002DA707A78F6
:4034400046F20C03C4F20003D3181846B97848F2C822C1F6FF720B464FEA43035B184FEA8303D31803F108031B889BB24FEA13239BB2DBB203707A7846F20D03C4F20003FB
:40348000D3181846B97848F2C822C1F6FF720B464FEA43035B184FEA8303D31803F108031B889BB2DBB203707A7846F28603C4F20003D3181846B97848F2C822C1F6FF7238
:4034C0000B464FEA43035B184FEA8303D318DB889BB2DBB203707A7846F28703C4F20003D3181846B97848F2C822C1F6FF720B464FEA43035B184FEA8303D318DB889BB25F
:403500004FEA13239BB2DBB203707A7846F28403C4F20003D3181846B97848F2C822C1F6FF720B464FEA43035B184FEA8303D318DB889BB2DBB203707A7846F28503C4F29A
:403540000003D3181846B97848F2C822C1F6FF720B464FEA43035B184FEA8303D318DB889BB24FEA13239BB2DBB20370BB6803F10803BB60FB7B03F10103FB73FA7BFB7828
:403580009A42FFF482AE07F11007BD4680BD00BF80B485B000AF0346FB7148F23933C1F6FF731B78DBB248F24412C0F200024FEAC303D3185B68FB60FB7903F101034FEA51
:4035C000C303FA68D3185B68184607F11407BD4680BC704780B400AF48F23933C1F6FF731B78DBB248F24412C0F200024FEAC303D3185B681846BD4680BC704780B582B010
:4036000000AF48F2AB23C1F6FF731B78DBB203F1FF33DBB21846FFF7BBFF78607B685B681B79FB70FB7803F102034FEAC3037A68D3187B607B685B68184607F10807BD462B
:4036400080BD00BF80B582B000AF4FF00003FB7146F20403C4F200031B78DBB203F07F03BB71BB7903F1FF33DBB24FEA03137B71BB79002B78D0BB79082B75D8B979B879F1
:4036800048F2C822C1F6FF7203464FEA43031B184FEA8303D3189B78DBB243F00103D8B248F2C822C1F6FF720B464FEA43035B184FEA8303D31802469A70B97948F2C822D7
:4036C000C1F6FF720B464FEA43035B184FEA8303D3184FF00002DA70B979B87948F2C822C1F6FF7203464FEA43031B184FEA8303D3185B78DBB243F00203D8B248F2C82290
:40370000C1F6FF720B464FEA43035B184FEA8303D31802465A70B97948F2C822C1F6FF720B464FEA43035B184FEA8303D3181B79DBB2DBB25BB2002B09DA7A7946F20E03F2
:40374000C4F20003D3184FF08D021A7008E07A7946F20E03C4F20003D3184FF089021A70FEF7F0FA0346FB71FB79184607F10807BD4680BD80B582B000AF4FF00003FB71C0
:4037800046F20403C4F200031B78DBB203F07F03BB71BB7903F1FF33DBB24FEA03137B71BB79002B00F0C180BB79082B00F2BD80B979B87948F2C822C1F6FF7203464FEAD7
:4037C00043031B184FEA8303D3189B78DBB223F00103D8B248F2C822C1F6FF720B464FEA43035B184FEA8303D31802469A70B97948F2C822C1F6FF720B464FEA43035B1819
:403800004FEA8303D3184FF00002DA707A7946F20C03C4F20003D3181A46797946F20C03C4F20003CB181B78DBB203F07F03DBB21370B979B87948F2C822C1F6FF720346A3
:403840004FEA43031B184FEA8303D3185B78DBB223F00203D8B248F2C822C1F6FF720B464FEA43035B184FEA8303D31802465A70B97948F2C822C1F6FF720B464FEA430351
:403880005B184FEA8303D3181B79DBB2DBB25BB2002B23DAB97948F2C822C1F6FF720B464FEA43035B184FEA8303D3185B78DBB2012B09D17A7946F20E03C4F20003D31857
:4038C0004FF00C021A702CE07A7946F20E03C4F20003D3184FF00D021A7022E0B97948F2C822C1F6FF720B464FEA43035B184FEA8303D3185B78DBB2012B09D17A7946F22F
:403900000E03C4F20003D3184FF008021A7008E07A7946F20E03C4F20003D3184FF009021A70FEF70FFA0346FB71FB79184607F10807BD4680BD00BF80B584B000AF4FF081
:403940000103FB7346F20403C4F200031B78BB7348F2AB23C1F6FF731B78DBB203F1FF33DBB21846FFF714FEB860BB685B681B79FB71BA7BFB799A4202D2BB7B012B03D91D
:403980004FF00003FB7318E0BA7BB97B48F2B423C1F6FF735B5CD9B248F23433C1F6FF739954BA7B46F20203C4F200031B78D9B248F2B423C1F6FF739954FB7B184607F187
:4039C0001007BD4680BD00BF80B582B000AF4FF00003FB714FF4C043C4F200031B78DBB2DBB25BB2002B21DA46F20103C4F200031B78DBB2012B18D148F2B823C1F6FF73A6
:403A000048F26012C0F200025A6048F26013C0F200031B781A4648F2B823C1F6FF731A80FEF716F80346FB7100E000BFFB79184607F10807BD4680BD80B500AF4FF0280084
:403A400000F0DAFA4FF0030000F052FA4FF0050000F0D2FA4FF0030000F04AFA4FF00F0000F0CAFA4FF0030000F042FA4FF0010000F0C2FA4FF0020000F03AFA4FF0050089
:403A800000F0BAFA4FF0060000F0BAF84FF00E0000F0B6F84FF02C0000F0B2F84FF0080000F0AEF84FF0010000F0AAF84FF00C0000F0A6F84FF0030000F0A2F84FF00500F3
:403AC00000F09AFA80BD00BF80B500AF4FF00C0000F096F848F20423C1F6FF734FF001021A7080BD80B500AF48F20523C1F6FF731B78002B08D1FFF79FFF48F20523C1F653
:403B0000FF734FF001021A70FFF7DEFF80BD00BF80B582B000AF02460B46FA71BB71FB79032B2BD801A252F823F000BF3D3B00004D3B00005D3B00006D3B0000BB79A3F1C6
:403B40008003DBB2184600F05BF818E0BB79A3F14003DBB2184600F053F810E0BB79A3F16C03DBB2184600F04BF808E0BB79A3F12C03DBB2184600F043F800E000BF07F19A
:403B80000807BD4680BD00BF80B584B000AF78604FF00103FB737B681B78BB730CE0BB7B184600F011F8FB7B7A68D3181B78BB73FB7B03F10103FB73BB7B002BEFD107F140
:403BC0001007BD4680BD00BF80B584B000AF0346FB7100F031F8FB794FEA1313FB73FB7B184600F02DF9FB7903F00F03FB73FB7B184600F025F907F11007BD4680BD00BFC7
:403C000080B584B000AF0346FB7100F015F8FB794FEA1313FB73FB7B184600F069F9FB7903F00F03FB73FB7B184600F061F907F11007BD4680BD00BF80B582B000AF45F2F3
:403C40002013C4F2000345F22012C4F200021278D2B222F07F02D2B21A7045F22213C4F200031B78DBB223F00F03FB7145F22213C4F20003FA7942F00F02D2B21A7045F292
:403C80002313C4F200031B78DBB223F00F03FB7145F22313C4F20003FA791A7045F22413C4F200031B78DBB223F00F03FB7145F22413C4F20003FA791A7045F22013C4F225
:403CC000000345F22012C4F200021278D2B222F02002D2B21A7045F22013C4F2000345F22012C4F200021278D2B242F04002D2B21A704FF0000000F0A3F945F22013C4F291
:403D0000000345F22012C4F200021278D2B242F01002D2B21A704FF0010000F091F945F22113C4F200031B78FB7145F22013C4F2000345F22012C4F200021278D2B222F0BE
:403D40001002D2B21A704FF0000000F079F9FB7903F00803FB7145F22013C4F2000345F22012C4F200021278D2B242F01002D2B21A704FF0010000F063F945F22013C4F254
:403D8000000345F22012C4F200021278D2B222F01002D2B21A70FB79002BAAD145F22013C4F2000345F22012C4F200021278D2B222F04002D2B21A7045F22013C4F20003AE
:403DC00045F22012C4F200021278D2B222F07F02D2B21A7045F22213C4F2000345F22212C4F200021278D2B222F00F02D2B21A7045F22313C4F200031B78DBB223F00F0301
:403E0000FB7145F22313C4F20003FA7942F00F02D2B21A7045F22413C4F200031B78DBB223F00F03FB7145F22413C4F20003FA7942F00F02D2B21A7007F10807BD4680BD22
:403E400080B582B000AF0346FB71FFF7F5FE45F22013C4F2000345F22012C4F200021278D2B242F02002D2B21A7045F22013C4F2000345F22012C4F200021278D2B222F076
:403E80004002D2B21A7045F22013C4F2000345F22012C4F200021278D2B222F00F02D2B21A7045F22013C4F2000345F22012C4F200021278D1B2FA790A43D2B242F0100256
:403EC000D2B21A704FF0010000F0BAF845F22013C4F2000345F22012C4F200021278D2B222F01002D2B21A7007F10807BD4680BD80B582B000AF0346FB7145F22013C4F21C
:403F0000000345F22012C4F200021278D2B222F06002D2B21A7045F22013C4F2000345F22012C4F200021278D2B222F00F02D2B21A7045F22013C4F2000345F22012C4F208
:403F400000021278D1B2FA790A43D2B242F01002D2B21A704FF0010000F072F845F22013C4F2000345F22012C4F200021278D2B222F01002D2B21A7007F10807BD4680BD37
:403F8000142840F2188002B4012114381149097811F0C001890904B40F4A515C04BC00BF00BF00BF88417FF5FDAF00BF00BF02BC704700BF00BF70F104007FF5FCAF704758
:403FC0000B050709EFF3108072B6704780F310887047000000480040C03F0000AFF3008080B483B000AF0346FB7101BE07F10C07BD4680BC704700BF80B582B000AF7860AD
:404000000BE048F23813C1F6FF731B681846FFF7B7FF7B68A3F500437B607B68B3F5004FEFD848F23013C1F6FF731B687A6802FB03F31846FFF7A4FF07F10807BD4680BDE4
:4040400080B582B000AF0346FB80FA8848F23413C1F6FF731B7803FB02F31846FFF790FF07F10807BD4680BD80B584B000AF03463960FB714EF60853CEF200031B68FB60E4
:40408000FB791F2B03D94FF00000FFF7A9FFFB7903F01F0303F110034FEA8303FA68D3181B68BB60FB7903F01F0303F110034FEA8303FA68D3183A681A60BB68184607F11E
:4040C0001007BD4680BD00BF80B582B000AF02460B46FA71BB71BB79072B03D94FF00000FFF77EFFFB791F2B03D94FF00000FFF777FFFB7903F01F0303F1604303F564436C
:40410000BA794FEA4212D2B21A7007F10807BD4680BD00BF80B485B000AF0346FB7145F23013C4F200031B78DBB223F02003FB7345F23013C4F20003FA794FEA4212D2B230
:4041400002F02002D1B2FA7B0A43D2B21A7007F11407BD4680BC704780B500AF45F62C03C4F200034FF000021A7045F62D03C4F200034FF000021A704FF0040000F06CF877
:404180004FF0020000F03EF880BD00BF80B400AF44F2A833C4F2000344F2A832C4F200021278D2B242F00802D2B21A7044F2B833C4F2000344F2B832C4F200021278D2B20F
:4041C00042F00802D2B21A70BD4680BC704700BF80B500AF48F20623C1F6FF731B78002B08D1FFF7B9FF48F20623C1F6FF734FF001021A70FFF7CAFF4FF0640000F056F813
:4042000080BD00BF80B483B000AF0346FB7145F62C03C4F2000345F62C02C4F200021278D2B222F00202D2B21A7045F62C03C4F2000345F62C02C4F200021278D1B2FA797D
:4042400002F00202D2B20A43D2B21A7007F10C07BD4680BC704700BF80B582B000AF0346FB7145F62C03C4F2000345F62C02C4F200021278D2B222F00C02D2B21A7045F623
:404280002C03C4F2000345F62C02C4F200021278D1B2FA7902F00C02D2B20A43D2B21A7000F014F807F10807BD4680BD80B483B000AF0346FB7145F68333C4F20003FA796B
:4042C0001A7007F10C07BD4680BC704780B483B000AF45F62C03C4F200031B78DBB203F00C034FEA9303DBB203F10603FB7144F20B63C4F20003FA7902F1924202F59C7277
:404300001278D2B21A7007F10C07BD4680BC704780B500AF4FF0010000F048F880BD00BF80B400AF45F67703C4F2000345F67702C4F200021278D2B242F06002D2B21A7027
:4043400044F2A433C4F2000344F2A432C4F200021278D2B242F00802D2B21A7044F2B433C4F2000344F2B432C4F200021278D2B242F00802D2B21A70BD4680BC704700BFA4
:4043800080B500AF48F20723C1F6FF731B78002B08D148F20723C1F6FF734FF001021A70FFF7B6FFFFF7BCFF80BD00BF80B483B000AF0346FB7145F65E03C4F2000345F6E9
:4043C0005E02C4F200021278D2B222F00302D2B21A7045F65E03C4F2000345F65E02C4F200021278D1B2FA7902F00302D2B20A43D2B21A7007F10C07BD4680BC704700BFB4
:4044000080B500AF4FF0010000F048F880BD00BF80B400AF45F67703C4F2000345F67702C4F200021278D2B242F06002D2B21A7044F2A433C4F2000344F2A432C4F2000235
:404440001278D2B242F00202D2B21A7044F2B433C4F2000344F2B432C4F200021278D2B242F00202D2B21A70BD4680BC704700BF80B500AF48F20823C1F6FF731B78002B09
:4044800008D148F20823C1F6FF734FF001021A70FFF7B6FFFFF7BCFF80BD00BF80B483B000AF0346FB7145F65A03C4F2000345F65A02C4F200021278D2B222F00302D2B25D
:4044C0001A7045F65A03C4F2000345F65A02C4F200021278D1B2FA7902F00302D2B20A43D2B21A7007F10C07BD4680BC704700BF80B500AF45F62803C4F200034FF0000238
:404500001A7045F62903C4F200034FF000021A704FF0040000F06CF84FF0020000F03EF880BD00BF80B400AF44F2A833C4F2000344F2A832C4F200021278D2B242F0040251
:40454000D2B21A7044F2B833C4F2000344F2B832C4F200021278D2B242F00402D2B21A70BD4680BC704700BF80B500AF48F20923C1F6FF731B78002B08D1FFF7B9FF48F280
:404580000923C1F6FF734FF001021A70FFF7CAFF4FF0640000F056F880BD00BF80B483B000AF0346FB7145F62803C4F2000345F62802C4F200021278D2B222F00202D2B28F
:4045C0001A7045F62803C4F2000345F62802C4F200021278D1B2FA7902F00202D2B20A43D2B21A7007F10C07BD4680BC704700BF80B582B000AF0346FB7145F62803C4F2F9
:40460000000345F62802C4F200021278D2B222F00C02D2B21A7045F62803C4F2000345F62802C4F200021278D1B2FA7902F00C02D2B20A43D2B21A7000F014F807F1080780
:40464000BD4680BD80B483B000AF0346FB7145F68233C4F20003FA791A7007F10C07BD4680BC704780B483B000AF45F62803C4F200031B78DBB203F00C034FEA9303DBB2D5
:4046800003F10603FB7144F20A63C4F20003FA7902F1924202F594721278D2B21A7007F10C07BD4680BC704780B582B000AF786000F042F8786800F00BF84FF0060000F045
:4046C0001BF800F02DF807F10807BD4680BD00BF80B485B000AF78604EF60853CEF200031B68FB60FB6803F144037A681A6007F11407BD4680BC704780B483B000AF0346FA
:40470000FB714EF20143CEF20003FA794FEA4212D2B21A7007F10C07BD4680BC704700BF80B400AF4FF46143CEF200034FF002021A60BD4680BC704780B400AF4EF2801302
:40474000CEF200034FF002021A60BD4680BC704780B582B000AF43F2FF1000F06BF843F2FF1000F085F8FFF72DFC0346FB7146F29753C4F2000346F29752C4F20002127853
:40478000D2B242F01002D2B21A70FB791846FFF71DFC00F07DF84FF0010000F02FF807F10807BD4680BD00BF80B400AF46F27553C4F2000346F27552C4F200021278D2B21F
:4047C00062F07F02D2B21A70BD4680BC704700BF80B500AF48F20A23C1F6FF731B78002B08D1FFF7B5FF48F20A23C1F6FF734FF001021A70FFF7D8FF80BD00BF80B483B0E2
:4048000000AF0346FB7146F28753C4F20003FA791A7007F10C07BD4680BC704780B400AF46F26753C4F200031B78DBB21846BD4680BC704780B582B000AF786046F22450AF
:40484000C4F20000796800F027FA07F10807BD4680BD00BF80B400AF46F24453C4F200031B6823F07F431846BD4680BC704700BF80B582B000AF786046F20450C4F2000084
:40488000796800F009FA07F10807BD4680BD00BF80B500AF01E0FFF7DDFFFFF7BFFF034603F00803002BF6D180BD00BF80B500AF4FF49E43C4F200034FF49E42C4F2000202
:4048C0001278D2B202F00102D2B21A7044F60273C4F2000344F60272C4F200021278D2B222F00302D2B21A7044F60B73C4F2000344F60B72C4F200021278D2B222F0300274
:40490000D2B21A7044F60B73C4F2000344F60B72C4F200021278D2B242F03002D2B21A7044F60B73C4F2000344F60B72C4F200021278D2B222F00F02D2B21A7044F60B7332
:40494000C4F2000344F60B72C4F200021278D2B242F00F02D2B21A7044F60173C4F2000344F60172C4F200021278D2B242F00102D2B21A7040F23F6000F06CF840F23F609D
:4049800000F07AF84FF0080000F048F880BD00BF80B400AF44F2A333C4F2000344F2A332C4F200021278D2B242F00102D2B21A7044F2B333C4F2000344F2B332C4F20002BE
:4049C0001278D2B242F00102D2B21A704FF49E43C4F200034FF49E42C4F200021278D2B242F00102D2B21A70BD4680BC704700BF80B500AF48F20B23C1F6FF731B78002B75
:404A000008D1FFF753FF48F20B23C1F6FF734FF001021A70FFF7BCFF80BD00BF80B483B000AF0346FB7144F60373C4F20003FA791A7007F10C07BD4680BC704780B400AF36
:404A400044F60373C4F200031B78DBB21846BD4680BC704780B485B000AF0346FB80FB88FB8144F60473C4F20003FA891A8007F11407BD4680BC704780B483B000AF03468F
:404A8000FB8044F60673C4F20003FA881A8007F10C07BD4680BC704780B582B000AF786000F042F8786800F00BF84FF0060000F01BF800F02DF807F10807BD4680BD00BFA4
:404AC00080B485B000AF78604EF60853CEF200031B68FB60FB6803F184037A681A6007F11407BD4680BC704780B483B000AF0346FB714EF21143CEF20003FA794FEA421221
:404B0000D2B21A7007F10C07BD4680BC704700BF80B400AF4FF46143CEF200034FF400321A60BD4680BC704780B400AF4EF28013CEF200034FF400321A60BD4680BC7047D7
:404B400080B582B000AF786000F042F8786800F00BF84FF0050000F01BF800F02DF807F10807BD4680BD00BF80B485B000AF78604EF60853CEF200031B68FB60FB6803F161
:404B800040037A681A6007F11407BD4680BC704780B483B000AF0346FB714FF46443CEF20003FA794FEA4212D2B21A7007F10C07BD4680BC704700BF80B400AF4FF461433D
:404BC000CEF200034FF001021A60BD4680BC704780B400AF4EF28013CEF200034FF001021A60BD4680BC704780B582B000AF4FF00003FB714FF00003BB714FF4C043C4F2E7
:404C000000031B78DBB203F00303012B02D0022B07D01EE046F20403C4F200031B78BB7118E046F20403C4F200031B78DBB203F07F0148F2C822C1F6FF720B464FEA430302
:404C40005B184FEA8303D31803F108039B78BB7100E000BF48F2B023C1F6FF731A68BB79D3181B78022B09D0032B02D0012B0BD009E0FDF7CBF90346FB7106E0FCF78EFB0B
:404C80000346FB7101E000E000BFFB79184607F10807BD4680BD00BF80B485B000AF786039607B68FB603B68DAB2FB681A70FB6803F101033A684FEA1222D2B21A70FB6829
:404CC00003F102033A684FEA1242D2B21A7007F11407BD4680BC704781F0004102E000BF83F0004330B54FEA41044FEA430594EA050F08BF90EA020F1FBF54EA000C55EA3D
:404D0000020C7FEA645C7FEA655C00F0E2804FEA5454D4EB5555B8BF6D420CDD2C4480EA020281EA030382EA000083EA010180EA020281EA0303362D88BF30BD11F0004F77
:404D40004FEA01314FF4801C4CEA113102D0404261EB410113F0004F4FEA03334CEA133302D0524263EB430394EA050F00F0A780A4F10104D5F1200E0DDB02FA0EFC22FA17
:404D800005F2801841F1000103FA0EF2801843FA05F359410EE0A5F120050EF1200E012A03FA0EFC28BF4CF0020C43FA05F3C01851EBE37101F0004507D54FF0000EDCF1CB
:404DC000000C7EEB00006EEB0101B1F5801F1BD3B1F5001F0CD349085FEA30004FEA3C0C04F101044FEA445212F5800F80F09A80BCF1004F08BF5FEA500C50F1000041EB03
:404E0000045141EA050130BD5FEA4C0C404141EB010111F4801FA4F10104E9D191F0000F04BF01460020B1FA81F308BF2033A3F10B03B3F120020CDA0C3208DD02F1140C40
:404E4000C2F10C0201FA0CF021FA02F10CE002F11402D8BFC2F1200C01FA02F120FA0CFCDCBF41EA0C019040E41AA2BF01EB0451294330BD6FEA04041F3C1CDA0C340EDC79
:404E800004F11404C4F1200220FA04F001FA02F340EA030021FA04F345EA030130BDC4F10C04C4F1200220FA02F001FA04F340EA0300294630BD21FA04F0294630BD94F09F
:404EC000000F83F4801306BF81F480110134013D4EE77FEA645C18BF7FEA655C29D094EA050F08BF90EA020F05D054EA000C04BF1946104630BD91EA030F1EBF00210020F0
:404F000030BD5FEA545C05D14000494128BF41F0004130BD14F580043CBF01F5801130BD01F0004545F0FE4141F470014FF0000030BD7FEA645C1ABF194610467FEA655C4C
:404F40001CBF0B46024650EA013406BF52EA033591EA030F41F4002130BD00BF90F0000F04BF0021704730B54FF4806404F132044FF000054FF0000150E700BF90F0000F1C
:404F800004BF0021704730B54FF4806404F1320410F0004548BF40424FF000013EE700BF42004FEAE2014FEA31014FEA02701FBF12F07F4393F07F4F81F06051704792F06B
:404FC000000F14BF93F07F4F704730B54FF4607401F0004521F0004120E700BF50EA010208BF704730B54FF000050AE050EA010208BF704730B511F0004502D5404261EB24
:4050000041014FF4806404F132045FEA915C3FF4DCAE4FF003025FEADC0C18BF03325FEADC0C18BF033202EBDC02C2F1200300FA03FC20FA02F001FA03FE40EA0E0021FA36
:4050400002F11444C1E600BF70B54FF0FF0C4CF4E06C1CEA11541DBF1CEA135594EA0C0F95EA0C0F00F0DEF82C4481EA030621EA4C5123EA4C5350EA013518BF52EA0335E3
:4050800041F4801143F4801338D0A0FB02CE4FF00005E1FB02E506F00042E0FB03E54FF00006E1FB03569CF0000F18BF4EF0010EA4F1FF04B6F5007F64F5407404D25FEAC4
:4050C0004E0E6D4146EB060642EAC62141EA55514FEAC52040EA5E504FEACE2EB4F1FD0C88BFBCF5E06F1ED8BEF1004F08BF5FEA500E50F1000041EB045170BD06F00046D8
:4051000046EA010140EA020081EA0301B4EB5C04C2BFD4EB0C0541EA045170BD41F480114FF0000E013C00F3AB8014F1360FDEBF002001F0004170BDC4F10004203C35DAAD
:405140000C341BDC04F11404C4F1200500FA05F320FA04F001FA05F240EA020001F0004221F0004110EBD37021FA04F642EB06015EEA430E08BF20EAD37070BDC4F10C0448
:40518000C4F1200500FA04F320FA05F001FA04F240EA020001F0004110EBD37041F100015EEA430E08BF20EAD37070BDC4F1200500FA05F24EEA020E20FA04F301FA05F265
:4051C00043EA020321FA04F001F0004121FA04F220EA020000EBD3705EEA430E08BF20EAD37070BD94F0000F0FD101F00046400041EB010111F4801F08BF013CF7D041EA65
:40520000060195F0000F18BF704703F00046520043EB030313F4801F08BF013DF7D043EA0603704794EA0C0F0CEA135518BF95EA0C0F0CD050EA410618BF52EA4306D1D164
:4052400081EA030101F000414FF0000070BD50EA410606BF1046194652EA430619D094EA0C0F02D150EA013613D195EA0C0F05D152EA03361CBF104619460AD181EA030138
:4052800001F0004141F0FE4141F470014FF0000070BD41F0FE4141F4780170BD70B54FF0FF0C4CF4E06C1CEA11541DBF1CEA135594EA0C0F95EA0C0F00F0A7F8A4EB0504E5
:4052C00081EA030E52EA03354FEA013100F088804FEA03334FF0805545EA131343EA12634FEA022245EA111545EA10654FEA00260EF000419D4208BF964244F1FD0404F540
:40530000407402D25B084FEA3202B61A65EB03055B084FEA32024FF480104FF4002CB6EB020E75EB030E22BFB61A754640EA0C005B084FEA3202B6EB020E75EB030E22BF44
:40534000B61A754640EA5C005B084FEA3202B6EB020E75EB030E22BFB61A754640EA9C005B084FEA3202B6EB020E75EB030E22BFB61A754640EADC0055EA060E18D04FEA20
:40538000051545EA16754FEA06164FEAC30343EA52734FEAC2025FEA1C1CC0D111F4801F0BD141EA00014FF000004FF0004CB6E711F4801F04BF01430020B4F1FD0C88BFF1
:4053C000BCF5E06F3FF6AFAEB5EB030C04BFB6EB020C5FEA500C50F1000041EB045170BD0EF0004E4EEA113114EB5C04C2BFD4EB0C0541EA045170BD41F480114FF0000E30
:40540000013C90E645EA060E8DE60CEA135594EA0C0F08BF95EA0C0F3FF43BAF94EA0C0F0AD150EA01347FF434AF95EA0C0F7FF425AF104619462CE795EA0C0F06D152EAFF
:4054400003353FF4FDAE1046194622E750EA410618BF52EA43067FF4C5AE50EA41047FF40DAF52EA43057FF4EBAE12E74A0011D212F5001211D20DD56FF47873B3EB6252B3
:405480000ED44FEAC12343F0004343EA505323FA02F070474FF00000704750EA013002D14FF0FF3070474FF00000704738B50E4D0E4B0024E81A8510AC4205D00B4951F8D6
:4054C000242090470134F7E702F00EFF0849094A541AA5100024AC4205D0054B53F8240080470134F7E738BDF4820000F4820000F4820000FC82000010B50023934203D0D3
:40550000CC5CC4540133F9E710BD82180346934202D003F8011BFAE7704700000EB400B59CB0029006906FF000401DAB049007904FF402710A4853F8042BADF814104FF604
:40554000FF71ADF81610006802A9019300F062F8029B00221A701CB05DF804EB03B07047A081FF1F2DE9F8439368064689461446002B41D1928912F4906F3DD061690325E0
:405580004D43236927680220FF1A95FBF0F5791C02F48062A94211B2A8BF3D18304679B1294601F02DFC8046A0B13A462169FFF7A3FFA38923F4906040F08002A28113E0DC
:4055C00019462A4601F05BFF804668B93046216901F0C6FBA0890C2340F0400233604FF0FF30A281BDE8F88308EB07016561ED1BC4F810802160A560A368002B06DD2068AE
:4056000000F8019BA2682060511EA1600020BDE8F88300002DE9F0479CB003938B890D4603F0800114460AB2064662B12B6953B9402101F0E5FB2860286110B90C213160B3
:40564000D3E04020686100272021302209978DF829108DF82A2023461F4613F8010B28B9B7EB040A16D04FF000090DE02528F3D1F6E7304614F809102A46FFF773FF013044
:4056800000F0AC8009F10109D145F2DB099901EB0A0209923B78002B00F0A08000244FF0FF3004940794059006948DF853401A9407F101094F4F4C4638462178052201F0A9
:4056C000E9FB09F10109049B30B1C41B012707FA04F73B430493EDE7D90602D520218DF853101A0702D52B228DF8532020782A2802D0079B27460EE0039A1768101D002F09
:40570000039001DB079704E0794243F002030791049301340AE03C46217801373039092903D80A2404FB0313F5E7079322782E2A19D160782A2809D1039802340368021D7A
:40574000002B0392B8BF4FF0FF330BE0671C00233C46217801373039092903D80A2404FB0313F5E70593244F21783846032201F091FB38B1C71B402101FA07F1049B013451
:405780000B43049314F8011B1C4806228DF8281001F080FB88B11A4A32B9039FFB1D23F007000830039014E003A90091304604A92A46144B00F0C0F807E003A8009004A966
:4057C00030462A460F4B00F079FBB0F1FF3F804604D0099A02EB080109913CE7AB8903F0400002B20AB9099801E04FF0FF301CB0BDE8F0878A81000090810000948100004F
:4058000039590000655500002DE9D04F1E4688B012AB002E9246109F93E8180803DA06F100462D2100E00021BBF1660F19700AD0BBF1460F07D0BBF1650F02D0BBF1450F87
:4058400003D1013701E0032300E002238DE8880007AA06AB0393049202945246334600F0DFFCBBF1670F804602D0BBF1470F02D11198C30728D5BBF1660F08EB070902D01E
:40588000BBF1460F0FD198F80010302909D1504631460022002301F0CFFE10B9C7F10107276023689944504631460022002301F0C3FE08B1CDF81C900798484504D230222A
:4058C00000F8012B0790F7E7079A159BC8EB02011960404608B0BDE8D08F73B50346002903F8022B02DA49422D2200E02B22092942701A4619DD0DF106040A2691FBF6F5BF
:4059000006FB15113031092D234604F801192946F3DC303103F8011D0DF107018B4209D213F8011B02F8011BF6E7302289181A7059709A1C101A7CBD2DE9F04F91B00C4663
:4059400016461F46DDF86880054601F04DFAD0F800A0504601F0FAFD0B90D8F800000023C11D0E9321F0070303F1080294F818B0C8F80020D3E90001C4E91201D4E9120199
:4059800001F0A2FD0128D4E9120117D10022002301F05CFE10B12D2284F843209A489B49BBF1470F8CBF884680462068032320F00401236121604FF0000986E001F084FD68
:4059C00010B993489349EBE761684A1C01D1062307E0BBF1670F02D0BBF1470F02D109B9012363602268606842F480618DE80300D4E9122321600DF133000DA90290039171
:405A00000EA800210590CDF810B006912846FFF7FBFEBBF1670F804602D0BBF1470F09D10D9BD81C02DB6268934231DDABF1020C5FFA8CFBBBF1650F0D9812D8411E5A468D
:405A400004F150000D91FFF748FF0E9A81468318012A236102DC2068C10730D5591C21612DE0BBF1660F15D10028636808DD206113B92268D2071ED50133C01820611AE00D
:405A800013B92168C80701D59A1C13E0012211E04FF0670B0D9B0E998B4205DB20682361C10708D55A1C05E0002BD4BFC3F102030123CA1822610D994FF00009A1659DF8ED
:405AC000332012B12D2384F843300097284621460FAA334600F082F9013002D14FF0FF3079E1236813F480620DD191462069814522DA284618F809103246B8470130EDD00C
:405B000009F10109F2E7BBF1650F40F2F180D4E912010022002301F08FFD00282DD0302128463246B8470130D8D00E9B0D9A9A4207DB2068C30704D421688A0700F14881F3
:405B400040E10B990AEB010BDA4507D028461AF8011B3246B8470130F6D1BFE74FF000080E9B5A1E9045E7DA2846A17E3246B8470130B3D008F10108F2E70D98002838DC46
:405B8000302128463246B8470130A7D00D9A22B90E9810B92168C807CED50B9B0AEB030BDA4507D028461AF8011B3246B8470130F6D193E74FF000090D9A5042814508DACE
:405BC0002846A17E3246B847013087D009F10109F2E74FF000090E998945ADDA284618F809103246B84701303FF478AF09F10109F1E7A16D0E9B8B42B4BF9C468C46BCF12B
:405C0000000F09DC002329E09B8100009F810000A3810000A7810000C1460CEB080319F8011B28460993CDF828C03246B8470130099BDDF828C03FF451AF9945EFD1E1E72D
:405C4000A17ECDF828C0284632460993B84701300999DDF828C03FF441AF4B1CD4F858902CEAEC72C2EB09008342E9DB0E990D9B8B420FDB2268D1070CD40E990D9BC844B3
:405C8000CA1AC9EB01099145A8BF9146B9F1000F0DDC18E00B980AEB000BDA45EDD028461AF8011B3246B8470130F6D116E708EB090A284618F8011B3246B84701303FF492
:405CC0000DAFD045F5D14FF0000808E02846A17E3246B84701303FF401AF08F101080D980E9929EAE9720B1A981A8045EEDB23E70E9898F8001001280ADCDA0708D428461B
:405D00003246B84701303FF4E9AE4FF0000848E028463246B84701303FF4E0AE0B990AEB010BDA4507D028461AF8011B3246B8470130F6D1D2E6D4E912010022002301F047
:405D40007BFC10B14FF000081AE04FF0000A0E98411E8A45D9DA08EB0A02517828463246B84701303FF4BAAE0AF1010AEFE72846A17E3246B84701303FF4B0AE08F10108BD
:405D80000E9B5A1E9045F2DBBFE704EB0803284693F850103246B84701303FF49FAE08F10108C845F1DBC7E62846617E3246B84701303FF493AE08F10108E2680F9BD01A2E
:405DC0008045F1DBE0680F998842B8BF084602E04FF00008F1E711B0BDE8F08F2DE9F047154699468A680B6980469A42A8BF13462B6091F843000C46DDF820A008B1591CF2
:405E000029602668B20602D52A68931C2B60206810F0060618D094F8437020683E1C18BF012683061AD5A119302281F8432094F84530023681F8443010E04046617E4A46EA
:405E4000D047013006D00136E1682A688B1A9E42F3DBE0E74FF0FF30BDE8F0870027B74209DAE119404691F843104A46D0470130F0D00137F3E721682868E66801F00602E5
:405E8000042A08BFC0EB06052369A6680CBF25EAE57500259E42C4BFC3EB0603ED180026AE4207DA4046A17E4A46D0470130D1D00136F5E70020BDE8F08700002DE9F04378
:405EC0000C46257E85B06E2D9046074699460C9904F1430200F0AA8012D8632D24D009D8002D00F0BB80582D40F0CB8084F84550824D57E0642D20D0692D40F0C2801CE09F
:405F0000732D00F0AF8009D86F2D2FD0702D40F0B880256845F0200626603FE0752D25D0782D40F0AE8039E0086804F14206021D0A60016884F84210A7E020680B6810F0F2
:405F4000800F02D01E1D0E6008E003F1040510F0400F0D6002D0B3F9001000E0196800293CDA2D20494284F8430037E025680E6815F0800F02D0331D0B6007E006F1040094
:405F800015F0400F086001D0318800E03168267E5A4D6F2E14BF0A2308231BE07820584D84F8450020680B6810F0800F03F104060E6003D1410601D5198800E01968C60760
:405FC00044BF40F02000206019B9206820F0200323601023002084F8430001E0474D0A236668002EA66003DB206820F00400206001B96EB104F14200B1FBF3FE03FB1E1134
:40600000695C064600F8011971460029F4D100E01646921B082B22613CD12368D80739D56068904236DC511C616033E026680B6816F0800F05D01E1D0E60196860690860C1
:406040000CE003F1040016F0400F086003D018686369038002E061691E68316000232361164617E00E68321D0A603668304601F06DFA63682061984288BF2361206960604B
:4060800005E004F1420684F8425001232361002184F84310CDF800903846214603AA4346FFF79CFE013002D14FF0FF3022E000252269954207DA3846715D4246C847013028
:4060C000F2D00135F4E72168890705D4E06803998842B8BF08460DE00025E068039BC21A9542F3DA3846617E4246C8470130DBD00135F2E705B0BDE8F08300BFAB81000059
:40610000BC8100002DE9F74F0B69026905469A42C0F28280D81C86008A1950685C1EAB1902F104095A68461CB2FBF6F601F1140805F11407002E3DD000203A46CDF80480F9
:406140008646019B53F804CB1FFA8CFA06FB0A0A4FEA1C40019306FB00F303EB1A4C13684FEA1C401FFA83FBDE441FFA8CFC1FFA8AFACAEB0E0ACCEB134303EB2A4C019B97
:406180001FFA8AFA4FEA2C4E4B454AEA0C4C42F804CBD6D9221D05EB8203586850B9BB421A4601D82C6105E01068043B0028F9D1013CF4E7284601F08FF800282ADB01368B
:4061C0003B46002058F804EB1A681FFA8EF11FFA82FAC1EB0A014FEA1E4C0918CCEB124000EB214289B2101441EA0242C84543F8042BE7D9231D05EB8303586850B9BB42BD
:40620000194601D82C6105E00A68043B002AF9D1013CF4E7304600E00020BDE8FE8F00002DE9F04F456A99B08346259CCDE9042345B9102000F0DCFDCBF824004560856033
:406240000560C560DBF82430196861B15868012202FA00F648608E60584600F05EFEDBF8241000270F60059B002B05DA012223F000462260059601E000202060059F9A499D
:40628000994B394099421CD12499049B42F20F720A603BB9954E9648C7F31307002F18BF304600E09148269E002E00F05285C27812B100F1080100E0C11C269E316000F0CE
:4062C00048BDDDE90445002220462946002301F0B3F958B1249E01233360269E002E00F0358584483060013800F033BD17A816AA00900192584622462B4601F06CF8C7F318
:406300000A56824666B1204625F07F4424F4700545F07F5141F44011A6F2FF3600221CE0179C169D6FF482612E198E420ADB7249049D06F212448B1B25FA04F007FA03F7D7
:40634000384304E06D4B049A981B02FA00F0FEF705FE013EA1F1F87101221592684B0022FEF7BEFC5AA3D3E90023FEF76DFE5AA3D3E90023FEF7B6FC044630460D46FEF782
:40638000FDFD57A3D3E90023FEF75EFE02460B4620462946FEF7A6FC04460D4601F07EF92946814600222046002301F04FF958B14846FEF7E3FD02460B462046294601F0CA
:4063C0003BF908B909F1FF39B9F1160F0ED84D4800EBC903D3E90001DDE9042301F054F928B1002209F1FF39149201E00120149016998E1B741E04D5654200200895099054
:4064000002E0002309940893B9F1000F08DB099D002305EB09000990CDF844900C9308E0089AC9F10006C9EB0201002408910C961194229A092A27D8052A03DD111F22910B
:40644000002500E00125229EB41E032C21D8DFE804F0060F0204012302E0012009E00023239A0D93002A1EDD0B92079213461FE00020239C0D9004EB0900431C002B0B9085
:40648000079315DC012313E00125002222920D9501E001260D964FF0FF3100260B9107911223239604E001210B9107910B462391DBF8244000206060042101F114029A42DB
:4064C00022D860684900421C6260F6E7AFF3008061436F63A787D23FB3C8608B288AC63FFB799F501344D33F0000F07FD6810000CD810000DB8100000EFCFFFFEEFBFFFF75
:406500000000F83FE88100006168584600F0D0FC2060DBF82440079923680E290A9300F25E81002D00F05B81B9F1000FDDE90401CDE9120133DD9D4B09F00F0703EBC70609
:40654000D6E900454FEA2916F2060CD5984A06F00F0602F12003D3E90023FEF79FFE0327CDE9040100E00227DFF8448276B1F30708D520462946D8E90023FEF765FD013781
:4065800004460D46761008F10808EFE7DDE9040122462B46FEF782FECDE9040120E0C9F10007E7B1814E07F00F0506EBC502DDE912010CCAFEF748FD7D4D3C1102274CB1F4
:4065C000E60704D5D5E900230137FEF73DFD64100835F4E702460B46CDE9042300E002271498E0B1DDE90445002220462946714B01F02CF898B1079989B10B9B002B40F347
:40660000EA80204609F1FF36294600226A4B1096FEF71AFD0137CDE904010B9C02E0079CCDF840903846FEF7A9FCDDE90423FEF70BFD0022614BFEF755FBA1F150750646F7
:406640002F46CCB9DDE9040100225D4BFEF748FB32462B46CDE9040101F016F8002840F04782DDE90401324605F1004300F0EEFF002840F03682AEE04C480D99621E00EBF3
:40668000C20300294BD0D3E9002300204D49FEF705FE32462B46FEF723FBDDE90467CDE90E010A9D3946304600F0F8FF8046FEF765FC02460B4630463946FEF711FB08F12B
:4066C000300305F8013BDDE90E2306460F46A84600F0BCFF002840F0278332463B4600203449FEF7FDFADDE90E2300F0AFFF002840F0D3800A99681AA0426CDADDE90E0117
:4067000000222D4BFEF7A0FC0022CDE90E012A4B30463946FEF798FC06460F46C2E7D3E9000132462B46FEF78FFCDDE904670A9DCDE90E012C19A8463946304600F0AEFF82
:406740000546FEF71BFC02460B4630463946FEF7C7FA303508F8015BA04506460F4633D10022184BDDE90E01FEF7BCFA02460B463046394600F088FF002840F08E80DDE9FD
:406780000E2300200F49FEF7ABFA02460B463046394600F05BFFF0B14046804618F8012C00F1FF30302AF8D0BEE200BFE8810000C08200000000F03F0000244000001C4059
:4067C000000014400000E03F00229A4BFEF73CFC06460F46B0E7DDE91245CDE90445179D002D7CDBB9F10E0F79DC934C239904EBC9050029D5E9004514DA079A002A11DC20
:4068000040F06E812046294600228C4BFEF71CFCDDE9042300F02EFF079C2546002840F0618168E10A9E07980A9F33180137089322462B46DDE90401FEF730FD00F02EFFD2
:406840000790FEF79BFB22462B46FEF7FDFB02460B46DDE90401FEF743FA079E0246303607F8016C089E0B46B742B84629D1FEF739FA22462B4606460F4600F005FF70B934
:406880003046394622462B4600F0D6FE002800F04D820799C90702D448E2DDF840904046804618F8012C0138392A06D10A9B8342F6D1302609F101091E7001784A1C0270E4
:4068C00034E200225B4BFEF7BFFB00220023CDE90401013700F0B0FE0028A9D026E20D9F002F30D0229A012A0ADC159911B105F2334302E01698C0F136030C9C089E16E049
:40690000079E0C9B711E8B4201DB5C1A06E00C98119F0D1A7C1911940C910024079A002A03DA089E0023B61A01E0089E079B089D099AEF185846D31801210897099300F072
:406940008BFB054602E00C9C089E0D9D66B1099F002F09DD0899099AB742A8BF3746C81BD31B0890F61B09930C9F002F20DD0D99C1B1002C10DD29462246584600F006FCF2
:40698000054652462946584600F06FFB51460746584600F0C2FABA460C98021B08D05846514602E00C9A5846514600F0EFFB82460121584600F050FB119A0446002A05DD36
:4069C00021465846119A00F0E1FB0446229B012B10DC049971B90598C0F3130767B9184F074057B1089A0999531C481C08930990012702E0002700E0049F119A42B12169CE
:406A000004EB8100006900F0DBFAC0F1200300E0012309995A1812F01F0315D0C3F1200004280FDD0898C3F11C03C2180892F61810E000BF00002440E88100000000144012
:406A40000000F07F08D0034608991C33CA1809990892F618CB180993089A002A04DD5146584600F0E5FB8246099A002A04DD2146584600F0DDFB04461499E1B15046214670
:406A800000F02AFC002816DA514658460A22002300F05AFA82460D9809F1FF3948B129460A225846002300F04FFA0B9A0546079201E00B9B07930798002825DC229902295B
:406AC00022DD78B921460522079B584600F03CFA04462146504600F0FFFB00280BDC01E000242546239BDDF828806FEA030909E0DDF840902546DDF82880312008F8010B4F
:406B000009F101090026FEE00D9B002B00F0B380002E05DD29465846324600F089FB05469FB16968584600F0C3F92B6907469A1C05F10C01920000F10C00FEF7DDFC584603
:406B40003946012200F074FB00E028460A9B07990A9E5A18771C09922E46054621465046FFF7D0FA03463033079031465046029300F0B2FB214608902A46584600F0C9FB7A
:406B80008446C06807F1FF38029B50B961465046CDF80CC000F0A0FB029B0246DDF80CC000E00122584661460392029300F0B5F9039A029B6AB9229959B9049800F0010167
:406BC00039B9392B2BD0089A002A2DDD079B31332AE00898002806DB1DD12299D9B9049800F00101B9B9002A1F461DDD514601225846029300F01CFB2146824600F06CFB77
:406C00000028029B02DC0FD1DA070DD5079B3133392F09D103E0002A09DD392B03D1392308F8013B55E0013308F8013B6BE0099AB846974207F8013C3BD051460A2200236C
:406C4000584600F081F90A220023AE4282463146584604D100F078F90646054609E000F073F9294606460A225846002300F06CF90546013772E70D9E50462146FFF742FA2B
:406C80000A9A00F13003079893550136864207DA514658460A22002300F056F98246EBE7DDF82880079900260129ACBF884408F10108514601225846029300F0B9FA2146AB
:406CC000824600F009FB0028029B02DC14D1DB0712D5414611F8010C8846392801F1FF3107D10A988842F5D1312309F10109037009E0421C0A7006E04046804618F8011CA4
:406D000001383029F9D05846214600F006F96DB12EB1AE4203D05846314600F0FEF85846294600F0FAF801E0DDF8409051460026584600F0F2F888F80060249A269E09F143
:406D40000101116026B1C6F8008001E0024800E00A9819B0BDE8F08FDA810000AFF3008030B500293CD051F8042C0B1F1D49002AB8BF9B180A6812B95A600B6030BD9342D9
:406D80000ED219685818904203D15A5889184268196014485A60036030BD994203D80A4651680029F9D1146815199D420AD118682318D0188842136012D108681B18136091
:406DC0004B680CE002D90C23036030BD18681C188C4203D10C684968001918605960536030BD00BF0C82FF1F00487047A481FF1F024B0146186800F003B800BFA081FF1FCB
:406E000070B5CD1C25F0030508350C2D38BF0C25002D06462DDB8D422BD31D4B1B681C469CB12268501B0DD40B2802D92060241817E0A34203D16068154A10601DE06168F4
:406E400059601AE023466468EAE72946304600F06DFB431C01460CD0CC1C24F003048C4201D1256009E03046611A00F05FFB0130F7D10C203060002070BD04F10B01231D0B
:406E800021F00700C31A02D05A42E25070BD70BD0C82FF1F10B5C9B2034682189342184604D0047801338C42F8D100E0002010BD70B5456A04460E463DB91020FFF798FFD4
:406EC0006062456085600560C560656AEB6843B1626AD36853F8260078B1016843F8261017E004212046212200F038FBE860606AC1680029ECD1002070BD012101FA06F5BD
:406F00006A1D2046920000F029FB0028F3D04660856000230361C36070BD70B5446A06460D463CB91020FFF763FF7062446084600460C4603DB1736A6A68D86850F8221049
:406F4000296040F8225070BD2DE9F0410C461E460D69074601F114010023086801331FFA80FC02FB0C6C060C564306EB1C401FFA8CFC060C0CEB0040AB4241F8040BECDB3B
:406F8000DEB1A268954213DB616838460131FFF78FFF8046206904F10C01831C9A0008F10C00FEF7A9FA21463846FFF7B6FF444604EB85020135566125612046BDE8F081D0
:406FC000020C0346100410B91B04102000E0002013F07F4F01D108301B0213F0704F01D104301B0113F0404F01D102309B00002B04DB5B0001D5013070472020704703687C
:40700000024613F007000BD0D90721D4980703D55908116001207047980810600220704799B209B91B0C102013F0FF0F01D108301B0A190701D104301B09990701D10230B2
:407040009B08D90702D45B0804D0013013607047002070472020704710B50C460121FFF727FF01224461026110BD2DE9F04F164633690A6985B09A420D4601DA35460E463C
:40708000D5F810803769AA68696808EB07049442C8BF0131FFF70CFF00EB8401143100F114030191019A934203D2002243F8042BF8E706EB870705F1140305EB880C143708
:4070C00002930CF1140E039700F1180306F11402039D1146AA424CD20988043209B3029F1D1F002657F8049BD5F800801FFA89FB1FFA88FA01FB0BAC4FEA19490CEB060ADA
:407100004FEA184601FB09681FFA8AFC08EB1A484CEA084ABE454FEA184645F804ABE1D82E6032F8021C11B353F8046C029F1D464FF0000935F802ACB7F800B0B6B201FB51
:407140000BACE14446EA094645F8046CA84657F8046BB8F800A0360C01FB06A6043506EB194677454FEA1649E4D3C8F800600433AEE7019B002C03DC046105B0BDE8F08FBC
:4071800053F8042D002AF7D1013CF3E712F003032DE9F04105460E46174607D0234A5E1E52F826200023FFF7CFFE0646BF1039D06C6A3CB91020FFF71BFE68624460846049
:4071C0000460C460D5F82480D8F808409CB9284640F27121FFF740FF0446C8F808000020206008E07F101DD0D4F800804046B8F1000F0ED00446F807F4D5314622462846E5
:40720000FFF733FF314680462846FFF786FE4646E8E7284621462246FFF727FF2060C0F80080E7E73046BDE8F08100BFB08200002DE9F0470C4623694FEA621808EB030A6C
